:1040000000000320216C00000D6C00000D6C00000E
:104010000D6C00000D6C00000D6C00000000000035
:104020000000000000000000000000000D6C000017
:104030000D6C0000000000000D6C0000916C000091
:104040000D6C00000D6C00000D6C00000D6C00008C
:104050000D6C00000D6C00000D6C00000D6C00007C
:104060000D6C00000D6C00000D6C00000D6C00006C
:10407000AD6B0000B36B0000B96B0000BF6B0000BC
:10408000C56B0000CB6B0000D16B0000D76B00004C
:10409000DD6B0000E36B0000E96B0000EF6B0000DC
:1040A000F56B0000FB6B0000016C0000076C00006A
:1040B0000D6C00000D6C00000D6C0000A94C0000A0
:1040C000A94C0000A94C0000A94C0000A94C00001C
:1040D0000D6C00000D6C00000D6C00000D6C0000FC
:1040E0000D6C00000D6C00000D6C00000D6C0000EC
:1040F000000000000D6C0000155000002150000071
:1041000025500000295000000D6C00000D6C0000CF
:104110000D6C00000D6C00000D6C00000D6C0000BB
:104120000D6C00000D6C0000FD4F000009500000F8
:104130000D500000115000000D6C00000D6C0000CF
:104140000D6C00000D6C00000D4A0000194A0000C3
:104150001D4A0000214A00000D6C00000D6C00009B
:104160000D6C00000D6C00000D6C00000D6C00006B
:104170000D6C00000D6C000000000000000000004D
:10418000116C0000A36C0000A76C0000AB6C000079
:10419000000000000D6C00000D6C00000D6C0000B4
:1041A0000D6C00000D6C00000D6C00000D6C00002B
:1041B0000D6C00000D6C00000D6C00000D6C00001B
:1041C0000D6C00000D6C00000D6C00000D6C00000B
:1041D0000D6C00000D6C00000D6C00000D6C0000FB
:1041E0000D6C00000D6C00000D6C00000D6C0000EB
:1041F0000D6C0000000000000D6C00000D6C000054
:104200000D6C00000D6C00000D6C00000D6C0000CA
:104210000D6C00000D6C00000D6C00000D6C0000BA
:104220000D6C00000D6C00000D6C00000D6C0000AA
:104230000D6C00000D6C00000D6C00000D6C00009A
:104240000D6C00000D6C00000D6C00000D6C00008A
:104250000D6C00000D6C00000D6C00000D6C00007A
:104260000D6C000010B5054C237833B9044B13B125
:104270000448AFF300800123237010BD80020020AA
:10428000000000008CB9000008B5034B1BB10349C6
:104290000348AFF3008008BD000000008402002046
:1042A0008CB9000008B500210E2003F00FF80021A2
:1042B000242003F04FF80121242003F007F8002107
:1042C000312003F003F800211B2002F0FFFF002142
:1042D0001D2002F0FBFF0121372002F0F7FF012132
:1042E000372003F037F800212F2003F033F80121A5
:1042F0002F2002F0EBFF0021102002F0E7FF002149
:10430000282002F0E3FF0021332002F0DFFF00212C
:10431000092002F0DBFF0021082002F0D7FF002176
:10432000032002F0D3FF0021022002F0CFFF002182
:104330000A2002F0CBFF00210B2002F0C7FF002172
:104340000D2002F0C3FF00210C2002F0BFFF01216D
:10435000352002F0FFFF00211A2002F0B7FF0021F4
:104360001B2002F0B3FF00211C2002F0AFFF01214F
:10437000352002F0ABFF0021362002F0A7FF00211C
:10438000302002F0A3FF0021322002F09FFF002125
:104390003420BDE8084002F099BF37B503680193A7
:1043A00004462025019B6068002BB4BF0121002139
:1043B00002F0D0FF0121A06802F0CCFF019BA068B1
:1043C0005B000021019302F0C5FF013DEAD1E068E6
:1043D000012102F0BFFF2946E06802F0BBFF02F0B6
:1043E0006DFC206103B030BD08B50368194301605E
:1043F000FFF7D3FF08BD08B5036823EA0101016098
:10440000FFF7CBFF08BD000010B5404C2368072B19
:1044100019D8DFE803F004232E34444F64744FF0BE
:1044200080713B48FFF7E0FF4FF000613848FFF72D
:10443000E2FF4FF080613648FFF7DDFF4FF000717B
:104440003348FFF7D8FF236801335A4202F00702CE
:1044500003F0070358BF5342236010BD4FF0807133
:104460002B48FFF7C1FF4FF000612948FFF7BCFF61
:10447000DFE74FF080712648FFF7BDFFF3E74FF00D
:1044800080712348FFF7B7FF4FF000612048FFF726
:10449000ABFF4FF080611E48FFF7A6FFCEE74FF05D
:1044A00080711B48FFF7A7FF4FF000611848FFF726
:1044B000A2FFEEE74FF080711548FFF79CFF4FF029
:1044C00000611348FFF797FF4FF080611048FFF736
:1044D0008BFF4FF000710E48FFF786FFB3E74FF0F8
:1044E00080710B48FFF787FF4FF000610848FFF726
:1044F00082FF4FF080610648FFF77DFFE9E74FF04C
:1045000080710348FFF770FFEEE700BFB4020020A0
:104510009C02002010B59EB002F0D0FB2B4A13691C
:10452000C01A642802D91046FFF737FF284C02F062
:10453000C5FB2368984247D902F0C0FBC830206011
:104540000E2002F01DFE80B2ADF80E000E2002F02B
:1045500017FE80B2ADF80E00BDF80E2042F2C45333
:1045600053430493049B4FF47A72B3FBF2F3049326
:10457000049C02F0A3FB2346164A0090642105A880
:1045800004F074FD05A9144800F0D0FD049C02F06D
:1045900095FB2346114A0090642105A804F066FDAE
:1045A00005A90F4800F0C2FD049C02F087FB2346DA
:1045B00000900C4A642105A804F058FD05A90A489A
:1045C00000F0B4FDFFF720FF1EB010BD9C020020DC
:1045D000B002002091AE0000B80A0020B2AE000088
:1045E000F8050020D4AE00003408002010B50C4CB3
:1045F00007200523C4E9010301210423E36002F03D
:1046000065FEA068012102F061FEE068012102F070
:104610005DFE002320462360FFF7BFFE10BD00BFF4
:104620009C02002008B50C490C4800F07FFD0C49A5
:104630000C4800F088FC60B90B49084800F076FD92
:104640000848064900F0B6FB0448BDE8084002F0FF
:1046500080B90649F1E700BF5CAE000034080020D5
:10466000C0CA8936C00500206AAE000080AE0000D6
:1046700038B5FFF717FE3C4C3C483D4D00F0E4F8E0
:104680003C4800F02DFA20464FF4E13101F0D2F819
:104690002946204600F04AFD2046374C01F04DF8EF
:1046A00020464FF4E13102F05FF82946204600F041
:1046B0003DFD2046314C02F04CF920464FF4E131EB
:1046C00002F052F82946204600F030FD20462C4CDE
:1046D00002F03FF9FFF7A6FF20464FF40061FFF715
:1046E0008AFE4FF480612046FFF785FE4FF4FA60A2
:1046F00002F016FB20464FF40061FFF775FE4FF005
:1047000080512046FFF770FE4FF47A7002F008FBEC
:1047100020464FF48061FFF767FE4FF000512046BE
:10472000FFF762FE4FF47A7002F0FAFA20464FF477
:104730008061FFF760FE4FF080412046FFF754FE96
:104740004FF47A7002F0ECFA20464FF08051FFF7F8
:1047500052FE20464FF00051FFF74DFE4FF08041D2
:104760002046FFF748FE38BDB80A0020B8020020F6
:10477000F8AE0000EC040020F8050020340800200A
:104780009C020020002070472DE9F84380460D462A
:10479000174601EB02090C464C45A4EB05060BD06D
:1047A000D8F8003014F8011B1B68404698470028D1
:1047B000F2D13046BDE8F8833E46FAE77047D0F8BC
:1047C0001C21D0F818319A421DBFD0F81C31C018F6
:1047D000007E4FF0FF307047D0F81831D0F81C0140
:1047E000181A48BF00F58070704700002DE9F843A3
:1047F00000251F464FF47A730446C0E901534FF475
:104800008076104B40F8183B894690462946324640
:1048100003F0D2FDC4F818513246C4F81C512946A1
:1048200004F5907003F0C8FDC4F82052C4F810904D
:10483000C4F8245284F814806775A5752046BDE835
:10484000F88300BF14AF000070B505460C4900693D
:104850000C4E00F045FF286900F0A7FD287D1824C4
:1048600004FB006393F9081002F09EFD687D04FBD1
:10487000006494F90810BDE8704002F095BD00BFD7
:10488000A086010024B00000D0F80031D0F8042147
:104890000133DBB29A421EBFD0F800218154C0F828
:1048A0000031704708B5837D6BB1D0F82032D0F865
:1048B00024220133DBB2934205D000F59070FFF75C
:1048C000E3FF012008BD0020FCE7D0F80421D0F868
:1048D00000319A421FBFD0F80431C25CD0F80431D5
:1048E00001331DBFDBB2C0F8043110464FF0FF307A
:1048F000704708B51830FFF7E8FF08BD70B50446EB
:10490000006900F092FD98B1206900F09BFD80B134
:10491000206900F064FD0321206900F067FDD4F8F0
:104920003052002D33D10023C4F81831C4F81C31A3
:1049300070BD206900F090FD40B1206900F087FD56
:1049400020B1206900F08DFD0028E1D0206900F041
:1049500083FD10BB206900F070FD0028E8D02069BD
:1049600000F07FFD002834D0D4F82032D4F824227F
:104970009B1A48BF03F580734BB304F59070FFF7A3
:10498000A4FFC1B2206900F043FDA075D0E7236801
:1049900020461B699847A847C5E7206900F01FFD1E
:1049A0002069032100F022FD206900F05AFD002853
:1049B000BED00023C4F82032C4F824320123A375EA
:1049C000D4F82C32002BB3D0BDE870401847FF213B
:1049D000D8E7D4F81831D4F81C2120690133DBB2B0
:1049E000934207D100F0F4FC20690321BDE8704038
:1049F00000F0FCBC00F03AFD014604F11800FFF79E
:104A000043FF206900F0EBFCEEE700000148FFF7F0
:104A100075BF00BFB8020020FFF7F8BFFFF7F6BF71
:104A2000FFF7F4BF1723162201490248FFF7DEBE45
:104A3000AC0A0020B8020020F8B5044610300D463C
:104A400017461E4600F0EEF804F1240000F0EAF8E4
:104A50000020C4E90E0084F8400060722DB90A4BB2
:104A60000A4A0B48222103F0BBFB9DF81830637102
:104A70009DF81C30E3719DF8203025602771A671E8
:104A800023722046F8BD00BF30AF0000A4AF000085
:104A900041AF0000437A23B98372C372C36001231C
:104AA000437270471FB5044604AB006803E9060073
:104AB00000F03EFC9DF80D30227AE17900932068E9
:104AC000002300F0E9FD2068029A9DF80C1000F028
:104AD0004DFC206804B0BDE8104000F01FBC000091
:104AE00070B50546FFF7D6FF0F4E0079182404FB7A
:104AF000006393F9081002F057FCA87904FB0063E7
:104B000093F9081002F050FC687904FB006494F9F2
:104B1000081002F049FC054B284693E80600BDE862
:104B20007040FFF7BFBF00BF24B000003005002079
:104B300017B4837A6C4684E8060043B19A070DD512
:104B4000EFF31083B3FA83F35B09C37272B694E890
:104B5000060003B05DF8044BFFF7A4BFDB0742BFBC
:104B6000014B8289DA60F2E700280040837A53B172
:104B70009A0703D5C37A33B162B67047DB0742BFE9
:104B8000014B82891A61704700280040006800F0DC
:104B9000DABB00001FB50A4A0A4B136000235371A9
:104BA00013710222CDE901321A230093182219232E
:104BB00005490648FFF740FF05B05DF804FB00BF5C
:104BC0003005002000093D00880A0020EC04002088
:104BD000084B186840B9EFF31082074942B972B622
:104BE000BFF35F8F01220A701A6801321A607047A2
:104BF0000870F9E73C05002038050020074B1A68CB
:104C000052B11A68013A1A601B682BB9044B1B7821
:104C100013B1BFF35F8F62B6704700BF3C05002041
:104C200038050020FF2202700321002242708270AA
:104C3000C270027141718260C260026170470000FF
:104C400010B4184B03EB011191F84E10C9B211F0DA
:104C500001040CD0017803EB0113012183F84E10FD
:104C6000042343708368D3B15DF8044B184711F0F7
:104C7000020F08D0017803EB0113022183F84E10D4
:104C8000C3684470EFE7490709D5017803EB0113C6
:104C9000042183F84E10072343700369E3E75DF8AE
:104CA000044B704700A0004108B5FFF791FF074B88
:104CB000198C074B01F01F0153F8210008B1FFF7D1
:104CC000BFFFBDE80840FFF799BF00BF00A000414B
:104CD0004005002013B502AB026803F8011D5468BB
:104CE00019460122A04702B010BD704700214FF4C1
:104CF0007A7310B5C0E901130B4B03600B4B0361D2
:104D00000B4B836135223623C0E907230223044677
:104D100041750175C0E90931C0E90B11416300F02B
:104D2000F9FC204610BD00BF08B0000000127A0058
:104D3000EC04002070B504460E46C06900211546FB
:104D400002F008FB04F1100393E80600A069FFF7E6
:104D5000EFFE3146A069FFF719FF2946A069FFF76A
:104D600015FF0546A069FFF701FFE069012102F088
:104D7000F1FA284670BD002201F07F01FFF7DABF8B
:104D800010B513210446FFF7F6FFE36AC01A10BD01
:104D9000036810B51B690446984738B1E36A0133CC
:104DA000E36200212046FFF7E6FF10BD4FF0FF3021
:104DB000FBE700002DE9F041DFF844800F4F064685
:104DC0000D4600244146284600F0A3F91022214652
:104DD000284600F0F4F93946284600F09AF9E1B285
:104DE0003046FFF7C8FF013401461022284600F084
:104DF000F5F9802CE6D1BDE8F08100BFF8AF0000E6
:104E0000FAAF00002DE9F0410C4622211546074675
:104E1000FFF7B1FF4319FF2B88BFC0F1FF0506461E
:104E200004EB0508444506D014F8012B80213846D0
:104E3000FFF780FFF6E77219D2B2A2213846FFF7DA
:104E400079FF2846BDE8F081036870B51B69054607
:104E5000984780B10D212846FFF78DFF00210646B7
:104E60002846FFF788FF324604468D212846FFF783
:104E700061FF204670BD4FF0FF30FBE781221146F5
:104E8000FFF758BF80228121FFF754BF38B5CB17F9
:104E9000DD040446002381620C4AC80445EA51310E
:104EA00003F01EF886210546C0F307422046FFF7AF
:104EB00041FFC5F3072287212046FFF73BFFEAB2F7
:104EC00020468821BDE83840FFF734BF0048E8019C
:104ED00078290CD8A1F12D02052192FBF1F2D2B272
:104EE00002F01F0242F020028B21FFF723BFF029BE
:104EF00003D801F11E020A21EFE71B22F0E7112976
:104F000038B5054615DD1429A8BF1421CC1E87220B
:104F1000CD21FFF70FFF8C212846FFF7D9FFA11EF7
:104F200061F07F022846D2B28921BDE83840FFF700
:104F300001BF0229B8BF02210C468422CD21FFF710
:104F4000F9FE6421E8E738B504460D46C069012141
:104F500002F0BCF9E069012102F0FCF9206A431C6F
:104F600010D0012102F0B2F90021206A02F0F2F91A
:104F70000A2001F0D5FE206A012102F0EBF90A2097
:104F800001F0CEFEA069FFF7ABFD42212046FFF7FE
:104F9000F2FE122829D12046FFF774FF2946204649
:104FA000FFF774FF00228E212046FFF7C3FE002288
:104FB0008F212046FFF7BEFE0C212046FFF7DBFEC7
:104FC00040F00302D2B28C212046FFF7B3FE042248
:104FD000A6212046FFF7AEFE11212046FFF78FFFE6
:104FE0002046FFF74BFF012038BD0020FCE7000002
:104FF0000148FFF77BBE00BFC0050020014801F05B
:10500000D7BC00BF34080020FFF7F8BFFFF7F6BF9A
:10501000FFF7F4BF014801F0CBBC00BFF80500204A
:10502000FFF7F8BFFFF7F6BFFFF7F4BFF7B5174E6E
:105030001749184F304600F0DBF81749174800F0C1
:10504000D7F81749174800F0D3F81749384600F049
:10505000CFF84FF08641154800F0CAF8012400252A
:105060001349144800F0C4F823462A463946CDE9CE
:105070000045114801F03AFCCDE9004537233822BC
:1050800031460E4801F032FC03B0F0BD700A00203A
:1050900000300040940A0020003400407C0A0020C8
:1050A00000200141880A002000400141A00A0020A0
:1050B00000040043AC0A002034080020F80500205A
:1050C0002DE9F04106460D4601EB02080C46444529
:1050D000A4EB050707D0336814F8011B1B683046A2
:1050E00098470028F3D13846BDE8F08170B50446F2
:1050F00008460D4603F0EEFF236802462946204687
:105100005B68BDE87040184709B1FFF7EFBF08467C
:10511000704708B5FFF7F8FF08BD03681B6818471C
:105120000149FFF7E3BF00BF7CB5000038B5054675
:10513000FFF7EAFF04462846FFF7F2FF204438BD98
:1051400070B58AB00D460AA9002301F8043D012A72
:1051500098BF0A22B5FBF2F402FB1456F3B2092EF3
:1051600094BF30333733DBB2254601F8013D002CC4
:10517000F0D1FFF7C9FF0AB070BD2DE9F041074635
:105180000E4615462AB90368C9B21B68BDE8F0414E
:1051900018470A2A05D1002905DBBDE8F041FFF7D1
:1051A000CFBFD2B2F9E72D21FFF7B7FF2A46044659
:1051B00071423846FFF7C4FF2044BDE8F081FFF795
:1051C000DCBF10B42AB903685DF8044B1B68C9B290
:1051D0001847D2B25DF8044BFFF7B2BF38B50546A9
:1051E000FFF7EFFF04462846FFF79AFF204438BD3B
:1051F000012201600271704770B506683568022BA4
:1052000045EA827214BF4FF08074002444EA02041D
:10521000346000689DF81040426801F0070141EADF
:10522000841114BF5B0300230A431A43426070BD1C
:1052300010B5036812051C6802F4401209042243E9
:1052400001F440310A431A600268536843F4403362
:10525000536010BD0268136843F0010313600368D4
:105260001A68D107FCD4DA69D207F9D4704702680A
:10527000136843F0020313600268D3699B07FCD4F0
:10528000704703681A7E12F0010F03D11A7E12F0E4
:10529000020FFAE77047036800225A8370470368D9
:1052A000187EC0F3800070470368187EC0097047FD
:1052B0000268137E43F08003137670470368588BAF
:1052C000C0F3400070470268538B43F002035383DE
:1052D00070470368187E00F0010070470368986A01
:1052E000C0B2704703681A7ED207FCD599620120CC
:1052F0007047036801229A757047036801221A7586
:1053000070470268136843F00103136003681A686A
:10531000D107FCD4DA69D207F9D470470268136860
:1053200043F0020313600268D3699B07FCD4704703
:105330000268D369C3F34003002BFAD1116863F309
:105340004101116070470368996203681A7E520731
:10535000FCD5986AC0B2704749008068B0FBF1F094
:1053600080B208B1013880B2C0B2704770B504682D
:10537000C1F3400601F001012568090741EA4671C1
:105380002943216011460368FFF7E6FF187370BDDB
:105390000268136843F00103136003681A68D107B9
:1053A000FCD4DA69D207F9D470470268136843F075
:1053B000020313600368DA699207FCD45A8B012157
:1053C00061F305125A830268D3695B07FCD4704706
:1053D00003681A685A6842F480225A60704703686A
:1053E0001A685A686FF392425A60704703681A68E5
:1053F000C2F38202052A5A6801F0030161F31142E7
:105400005A6004D10268D3695B07FCD470477047C7
:10541000036899620368187EC0F3800020B1588B3E
:10542000C0F3800080F00100704703681868C0F383
:105430008200031F5842584170470368187EC0F32A
:10544000800070470368187E00F001007047036811
:10545000588BC0F3001070470368187EC0F34000FB
:1054600070470368588BC0F3C000704703681A6820
:10547000C2F38202052A02D11A7E9207FCD5986AED
:10548000C0B270470368124A934213D002F580629B
:10549000934211D00F4A934210D002F5005293422A
:1054A0000ED0B3F1864F0DD00B4A93420CD105209C
:1054B00040B270470020FBE70120F9E70220F7E740
:1054C0000320F5E70420F3E74FF0FF30704700BFFB
:1054D000003000400020014100040043052A30B59F
:1054E0002BD0284C09010C44B3B12179264C203132
:1054F00054F821506FF3861544F8215054F8215088
:105500006D06FBD463B302710AB3012A2ED1412385
:1055100044F821301D4B0AE06179E7E7032A1A4C71
:105520000CD1432244F8212013B14FF4004383608F
:10553000154B53F821205206FBD530BD042AF7D174
:10554000442244F82120002BF2D0114BEFE74023F6
:1055500044F821300F4BEAE7402344F82130E7E7D5
:10556000002AF9D0012A08D14123F6E7022AD5D131
:10557000422344F82130084BD9E7022ACED14223F6
:10558000EBE700BF80B50000001C0040006CDC02AF
:10559000001BB700000E270700E1F5052DE9F041DB
:1055A0000446FFF76FFF051E3BDB1F4BDFF87CE077
:1055B000DFF87C8029B203EB0111043100204FF0A9
:1055C000010CC02731F9023F002B4FEA531203F0C0
:1055D0001F064FEA8202BCBF03F00F03043B02F137
:1055E000604202F56142B4BF4344734400F10100DC
:1055F0000CFA06F6C0B2C2F88061B4BF1F7683F819
:10560000007304281660DDD1227929460123204643
:10561000FFF764FF227929460023BDE8F041FFF738
:105620005DBFBDE8F08100BF80B5000000E100E093
:1056300000ED00E02DE9F04104460F4690461D467E
:10564000FFF7ACFF2046FFF705FEB8004FEA4833EE
:1056500026689BB200F01C00184330602368842247
:10566000012F9A7514D12268B8F1010F91890CBFEE
:10567000102308235D43074BB3FBF5F363F34F316E
:10568000918122689189C3F3CC0363F30C0191816A
:10569000BDE8F0810060E316F8B505460F461446F4
:1056A0001E46FFF72EFEFFF779FF24059DF8181020
:1056B0002A6804F4401444EA8174390444F00C0468
:1056C00001F44031214311602B6806F0070646F4CF
:1056D00000365E602A68D3695B07FCD4F8BD000021
:1056E00038B505460C46FFF759FF2846FFF750FE30
:1056F0002B6814221A602A68054BD1686400B3FB3A
:10570000F4F3013BDBB263F30701D16038BD00BFA6
:10571000006CDC02816070473F20704713B502AB1C
:10572000026803F8011D546819460122A04702B01F
:1057300010BD0221006900F003BC0321006900F0E4
:1057400013BC000010B51346074AD27904461AB9B3
:1057500001236360002010BD0A460069032100F0A8
:10576000F5FC0028F4D0F6E70400002010B5054C45
:105770002368591C04D103685B699847034620607D
:10578000184610BD50000020064A1368591C03D16A
:105790000221006900F0CABC4FF0FF3111601846C9
:1057A000704700BF500000200378034902330370A4
:1057B0004222024800F06CBD0C000020D40A0020F8
:1057C00010B502784378A12A08D1212B1BD10722DA
:1057D0001549164800F05CFD012010BD212A12D1A8
:1057E000202B12D107221049104800F0FBFB0E4B72
:1057F0001A68B2F5966F0ED1D87910F001040AD16B
:10580000FA2001F027FE0020E7E7222B06D1064B05
:105810008278DA71EBE701F023FEF4E7232BF2D173
:10582000034B42881A60EEE704000020D40A0020EF
:105830000000002070470000054B00224FF47A71F1
:10584000C3E9012103491960034919611A767047B8
:10585000B80A0020E8B50000D40A0020704710B54F
:1058600001F1080400F00F02D3B2092ACCBF37338C
:10587000303304F8013DA1424FEA1010F2D110BDBF
:1058800010B50446806902F007FDA06A02F004FD2D
:10589000204610BD10B50446FFF7F2FF204601F088
:1058A00081FA204610BD00000329F0B407D12B4B2C
:1058B00053F82000F0B10368F0BCDB681847822978
:1058C0001AD12749274AC3B201EB43150324AE6915
:1058D00064F31E76AE610968083302EB80105B0149
:1058E0006861C818027942F080020271CA5C64F3F0
:1058F0000612CA54F0BC70470029FBD1184DC3B240
:1059000005EB43120327946867F31E749460164CEA
:10591000083304EB801050605B012868C45C0126EA
:1059200066F30204C454D2F818C00E4C67F31E7C10
:10593000C2F818C05461C45C66F30614C454C51898
:105940009368402060F39B339360936861F30D0389
:1059500093606B7903436B71CCE700BFD80A0020DA
:105960008C0F0020000B0020C00C0020EFF31082F1
:1059700002600122426072B67047036813B962B6D2
:10598000BFF36F8F704737B5056904466846ADB9F8
:10599000FFF7ECFF019B13F1FF3303D394F824507E
:1059A000EDB2F8E768460193FFF7E7FF15B900206D
:1059B00003B030BD206AE369C01AF9E7FFF7D6FFEC
:1059C000019B002513F1FF3303D394F83450EDB25B
:1059D000F8E768460193FFF7D0FF002DE7D0206B72
:1059E000E36AE9E74368027A1B6803EB421393F822
:1059F000092142F0010283F80921027A4368C16853
:105A000003EB42139A6861F39B329A60027A43680F
:105A100003EB42139A686FF30D029A604368027AAF
:105A20001B68083203EB42131A7942F040021A71E4
:105A30007047F7B5036904460E4617466846002BC3
:105A400044D1FFF793FF019B013B5D1C0ED094F8FE
:105A50002420591E02F0FF0532B968460193FFF772
:105A60008CFF284603B0F0BD0B46EEE76846019375
:105A7000FFF783FF0025AF42E36909D0226A9A420B
:105A800006D9A269591CE161D35C73550135F2E76F
:105A9000226A9A42E5D100260123E6612361684625
:105AA000FFF764FF3746019B013B581CD5D084F8B3
:105AB000246094F83520591E32B184F835702046A0
:105AC0000193FFF78FFFEEE70B46EEE7FFF74EFF80
:105AD000019B013B591C08D094F83420591E02F058
:105AE000FF05002AB9D00B46F4E768460193FFF79B
:105AF00044FF0025BD42E36A02D0226B9A421AD8C5
:105B0000226B9A42ADD10026E66226616846FFF715
:105B10002DFF3746019B013B5A1C9ED084F8346010
:105B200094F83520591E6AB184F8357020460193E7
:105B3000FFF758FFEEE7A26A591CE162D35C735588
:105B40000135D7E70B46E7E737B54368027A1B68AC
:105B5000083203EB42130446DA79D00727D5012532
:105B6000DD71D4E90132D2B203EB421361699A6864
:105B7000C2F30D0209BB2262226A002A3CD0A26A4B
:105B8000656168465A60FFF7F1FE019B013B591CB5
:105B90002ED084F8245094F83420591E02F0FF00CF
:105BA0003AB184F8355068460193FFF7E6FE03B03A
:105BB00030BD84F835000B46E9E72263226BDAB189
:105BC00000226261A2695A606846FFF7CFFE019B1E
:105BD000013B5A1C0CD084F8345094F82420591EF0
:105BE00002F0FF00002ADCD184F835000B46F0E714
:105BF00068460193FFF7C1FE2046FFF7F3FED6E7A4
:105C000037B502AD002305F8013D0C462846FFF7E5
:105C1000CBFD23681844206001F07EFC294601F08A
:105C20004BFC2368184420609DF8070003B030BD8A
:105C300003290BD10C4B1B6893F8642142F08002BE
:105C400083F86421022283F86721704701290AD171
:105C5000054B1B6893F8242142F0800283F824212D
:105C6000022283F8272170478C0F0020404B70B52B
:105C70000121002406461C201C7001F027FB012195
:105C80001C2001F067FB3B4B3B4D1C7001211B208E
:105C900001F01CFB01211B2001F05CFB374B384855
:105CA0009A6942F001029A611A6942F480621A61AB
:105CB000344B93F8582042F0010283F8582093F8AF
:105CC0003C2002F0F00283F83C2093F83C2042F0A4
:105CD000070283F83C2093F8592042F0010283F830
:105CE000592093F83C2002F00F0283F83C2093F8EF
:105CF0003C2042F0700283F83C20234B4122C3F841
:105D0000A82000F0D5FF284601F018FC284601F035
:105D10002FFC2A68137864F3C71313702A6813786A
:105D200043F0040313702A68138964F38303138117
:105D3000164B4FF4803183F8504383F8514383F876
:105D4000524383F8534399604FF4003199604FF404
:105D5000802199604FF400219960137843F0020389
:105D600013702A6893789B07FCD40123337070BDAD
:105D7000F50A0020F40A00208C0F002000080040E3
:105D80004967000000800041001C004000E100E085
:105D9000007880B1084B1B681A896FF300021A81E2
:105DA0001A8B42F008021A831A8B42F004021A83FB
:105DB000024B00221A6070478C0F0020840F0020D5
:105DC0000E4B9A696FF30D029A611B68022283F8E9
:105DD000072193F8052142F0800283F8052193F80A
:105DE00007219207FBD54FF082439A7A61F30602AE
:105DF0009A729A7A42F080029A7270478C0F002051
:105E00000B7910B50C465BB90846FFF7D9FC08B111
:105E1000012010BD094B9A6960F30D029A61F7E702
:105E200001F07AFB214601F068FB0028F0D1034B1A
:105E30009A6960F30D029A61EBE700BF8C0F0020B6
:105E4000832A2DE9F0410D4616D1CBB23049314AB3
:105E500001EB43100326846966F31E7484610833E2
:105E600002EB8515096845615B010420CA5C60F39B
:105E70000612CA54BDE8F081022A42D1264E56F8D5
:105E8000210010B103685B699847382000F088FF53
:105E90001F4F224B03604FF48078002304460362B7
:105EA000C0E9038380F8243043610363C36180F851
:105EB0003430C36280F83530C0E90175404602F0E5
:105EC000E3F9A061404602F0DFF9EBB207EB4312C1
:105ED000A0629168032060F31E71916008333968F5
:105EE0005B01CA5C60F30202CA546368217AA2694A
:105EF00003EB411320465A60FFF774FD46F8254036
:105F0000B8E728461146BDE8F041FFF7CDBC00BF19
:105F10008C0F0020000B0020D80A00200CB60000D7
:105F200070B5064E0546012456F824202AB12146B4
:105F30002846FFF785FF0134F6E770BD54000020C6
:105F4000074B53F8210010B103689B681847054BB5
:105F5000C9B203EB41118868C0F30D00704700BF60
:105F6000D80A00208C0F002010B50C46FFF7E8FF80
:105F700058B1064BE4B21968083401EB44114B796F
:105F800043F080034B710223CB7110BD8C0F0020B6
:105F9000124B30B5CAB203EB8111114B55015819A0
:105FA00008244160816864F39B31816081686FF3EC
:105FB0000D0181601868224400EB42110C7944F015
:105FC00040040C718C796406FCD500EB4212D17947
:105FD000C907FCD52B449868C0B230BDC00C002066
:105FE0008C0F002038B50C4B14461A6892F8043117
:105FF00043F0400382F804310D460021FFF7C8FF4B
:106000000649A04228BF20460023A34203D05A5C81
:10601000EA540133F9E738BD8C0F0020C00C002092
:1060200010B50B4BC9B2490158180B448268C2F332
:106030000D023F2A89BF84688268403A62F30D04EA
:1060400096BF6FF30D02846082609868C0B210BD85
:106050008C0F00202DE9F0471D462F4B1B6807468B
:106060000E469146002B54D02C4C227802F0FF01B2
:1060700012B91B2001F06EF964232370284B53F8EA
:10608000260030B103682A4649465B68BDE8F04700
:10609000184731463846FFF753FF854204D9314649
:1060A0003846FFF74DFF0546DFF87CA031463846FD
:1060B000FFF7B6FFF4B2DAF800301A494FEA441895
:1060C000434401EB861193F8082142F0010283F862
:1060D000082148462A4602F04BF9BDB13146384600
:1060E000FFF72EFF90B9DAF8002004F1080302EB65
:1060F0004313197941F0400119710121D97102EB63
:10610000080393F809210A4383F809212846BDE8CA
:10611000F0874FF0FF35F9E7840F0020F40A0020E4
:10612000D80A0020C00C00208C0F002007B50123E6
:106130000DF10702FFF78EFF01280CBF9DF8070045
:106140004FF0FF3003B05DF804FB00002DE9F74F7E
:106150009846384B1B6889469246002B42D0B8F5CA
:10616000804F3FD8344C227802F0FF0112B91C2036
:1061700001F0F0F8642323705FFA89F42F4B04F1E7
:10618000080B4FEA4B1203EB891300260192B8F17A
:10619000000F29D02A4A0199156869188979009257
:1061A000C909284924D0284A28481268B2FBF0F0CF
:1061B000274A42431720B2FBF0F205EB4B10C77998
:1061C000BF0715D411F8097017B912F1FF32F6D2D2
:1061D000012301F80930009B03EB4414A3696FF31A
:1061E0000D03A3614FF0FF36304603B0BDE8F08FDA
:1061F0004746402F28BF4027002201F809201846B3
:1062000051463A4602F0B4F8009A02EB441205EB0C
:106210004B155061916967F30D0191610222EA719A
:106220006A7942F0800203466A713E44A8EB07088F
:10623000BA44ACE7840F0020F50A0020000B0020D0
:106240008C0F0020F70A00207C00002040420F0045
:106250007011010070B50C4C0D4604EB851411460D
:1062600020461A461E4602F083F80849EDB201EBBB
:10627000451130464C618B696FF39B338B618B69A1
:1062800066F30D038B6170BD000B00208C0F0020A6
:10629000114B1B782DE9F04107468846164653B945
:1062A0000E4B1C7854B10E4D0E482C8820443444BB
:1062B00002F05EF82C803046BDE8F0811546002DD6
:1062C000F9D02B4608EB040200213846FFF7C2FF45
:1062D00004442D1AF3E700BF800E0020810F002038
:1062E000820F0020810E0020F8B5012A00AF0D4674
:1062F00014462BD9D31D03F4FC73ADEB030D0846F4
:1063000002F0E8FE0130400003238DF800008DF814
:1063100001306E46013D02230020A3420CD215F845
:10632000011F49B15A1CD2B29442F15403D0023336
:10633000B054DBB2F1E723461A4631460448FFF772
:10634000A7FF003018BF0120BD46F8BD0020FBE7C5
:10635000D40A00202DE9F04385B004AE002446F8AD
:10636000104DDFF88890884601273146054689F8A8
:106370000070FFF745FC40F20923ADF80430A0237C
:106380008DF80B3032238DF80C30009B8DF80A40CD
:106390000933B8F1090F8DF80970ADF806308DF8A2
:1063A000080089F8004008D1424601A92846FFF7B5
:1063B0006FFF012005B0BDE8F083DFF83480009462
:1063C00088F80070074F092201A928463C80FFF792
:1063D0005FFF31462846FFF713FC88F800403A88F3
:1063E0000149E3E7820F0020810E0020800E00208B
:1063F000810F0020F0B5CF78022F93B006460D46EE
:1064000008D1C9882C48FFF7A5FF003018BF01202C
:1064100013B0F0BD01F080F8294601F060F8041EC9
:1064200003D0CCBF01200020F2E7012F0AD1EA8877
:10643000112A3CD82149D2B262B13046FFF728FF79
:106440000120E5E7032F34D1AB782BB9EA88032A82
:106450002AD91B490A78F0E7022B05D1AA791949F4
:106460003046FFF741FFD3E7012B02D1AA79164945
:10647000F6E7032B1DD1154B01A91868FFF7EFF9BB
:10648000134B03A91868FFF7EAF9124B05A918681E
:10649000FFF7E5F9104B07A91868FFF7E0F98DF849
:1064A0002440AA7901A9DBE7D2B20549C4E7034930
:1064B000D0E72046ACE700BFD40A002047B6000072
:1064C00036B6000024B600003AB60000FC61800039
:1064D00010608000146080001860800037B54B7831
:1064E0000C460B2B0FD8DFE803F0061E0E2F0E45CF
:1064F00049774C4F6B6E097841B9ADF8041002230F
:1065000001AAFFF7A7FE012003B030BD0023ADF8BC
:106510000430324B1B78012B08BF8DF8043001AAE0
:1065200002230021EDE78B78012B4FF0000303D10C
:10653000ADF804302A4BEDE7284A1370294A9169D7
:1065400063F30D019161DEE78C78012C07D1244BB8
:1065500002AA00211C7002F8041D2346D1E7002C7A
:106560003AD11E4B012018701E4B9A6964F30D023C
:106570009A61C9E78978FFF723FCC4E7FFF73AFF80
:10658000C2E70123184ACCE70B7813F01F0523D18B
:10659000FFF7C6FC144BA2781A60124A136893F8EE
:1065A000291141F0020183F8291193F8491141F0B2
:1065B000010183F84911936965F30D039361A2E723
:1065C00001230A4AADE7094B8A781A60054B9A699C
:1065D0006FF30D029A6196E7002095E7F60A002016
:1065E000FE0A00208C0F0020840F0020880F00205E
:1065F0002DE9F8434D4B1D780746002D40F087806C
:106600004B4C23689B8B19070ED529462846FFF76C
:106610004BF9236893F8092142F0100283F809210D
:10662000444A156008229A8323689A8B52071BD527
:1066300004229A83404A13784BB11378013BDBB2B2
:10664000137013781BB901211C2000F083FE3B4A14
:1066500013784BB11378013BDBB2137013781BB97D
:1066600001211B2000F076FE236893F80721D6064F
:1066700026D5102283F8072193F80421304942F0EF
:10668000400283F804210B7813F0600F384640D1A4
:10669000FFF724FF236800283ED093F8052142F03D
:1066A000800283F8052193F80721550608D540227A
:1066B00083F8072193F8082142F0400283F808216B
:1066C0002368DFF880901E8C002506F0FE064FF050
:1066D0000108E9B2DEB146FA05F3D80714D52368FC
:1066E00005F1080203EB4213DA79D20702D4DB7911
:1066F0009B0705D559F82500A0B103681B6898478A
:1067000008FA05F326EA03060135092DE1D1BDE8B3
:10671000F883FFF775FBBDE74FF08242202182F836
:106720000511C0E73846FFF783FAE9E7810F00203B
:106730008C0F0020840F0020F50A0020F40A0020AE
:10674000C00C0020D80A00200148FFF751BF00BF4D
:10675000D40A0020024B4FF082421A60704700BFFB
:106760008C0F002001207047036840F213421B6A1F
:106770001847D0F81821D0F814319A421DBFD0F82C
:106780001831C018007D4FF0FF30704710B5044637
:106790000069FEF75FFD0023C4F81431C4F8183116
:1067A000C4F81C32C4F8203210BD01F0F001A1F190
:1067B000300358425841704701F47061B1F5007FD1
:1067C00008D0B1F5407F07D0B1F5807F0CBF052020
:1067D00000207047062070470720704701F00F0126
:1067E000012904D002290CBF01200220704700209B
:1067F000704700002DE9F3410446334D90F8240220
:10680000182606FB0053884693F90810174600F037
:10681000CBFD94F8250206FB005393F9081000F015
:10682000C3FD94F82732022B09D194F83802FF28CF
:1068300005D006FB005696F9081000F0B5FD94F857
:106840002802FF2817D0012100F040FD94F82822EB
:1068500018235343E918EA561C4B4968D2011344E4
:10686000C4F82C321A4B134401228A40C4F8303247
:10687000C4F834221A600122434611462069FEF70B
:10688000D9FE39462046FFF797FF39460546204690
:10689000FFF7A4FF394602462046FFF786FF294648
:1068A0001346009001222069FEF7A6FC206994F8A7
:1068B000262294F82712FEF7BBFC206902B0BDE83F
:1068C000F041FEF7D4BC00BF24B0000018800041A6
:1068D0001480004108B54FF48072002101F06CFD76
:1068E0000022C0F80021C0F8042108BDF8B5164602
:1068F0001D4600224FF47A73C0E901230F4B044672
:1069000040F8143B0F46FFF7E5FF04F58E70FFF7E4
:10691000E1FF9DF8183084F826329DF81C3084F889
:106920002732FF23276184F8246284F8255284F8F3
:10693000283284F838322046F8BD00BF64B6000023
:10694000D0F80031D0F80401181A48BF00F5807063
:10695000704738B5044600F58E752846FFF7F0FFFE
:106960000028FAD12069BDE83840FEF78ABC08B596
:106970001430FFF7E5FF08BDD0F80021D0F804314E
:106980009A42A5BFD0F80031D0F80421D0F80431E4
:10699000C3F1FF00AFBF8018D0F80001181A00F152
:1069A000FF30704708B500F58E70FFF7E5FF08BDB2
:1069B00010B504460069FEF781FC28B12069FEF796
:1069C0008DFC2069FEF77FFC2069FEF768FCF8B1BA
:1069D0002069FEF783FCD4F81431D4F81821013370
:1069E000DBB293421FBFD4F8142112191075C4F8FA
:1069F000143194F82832FF2B0AD004F11400FFF769
:106A0000BBFF0928DEBFD4F82C32D4F834221A6038
:106A10002069FEF75EFCE0B104F58E70FFF790FF91
:106A200018B3D4F82022D4F81C3220699A421BBF34
:106A3000D4F820321B194FF0FF3193F81C111FBFFF
:106A4000D4F820320133DBB2C4F82032C9B2FEF7E9
:106A500049FC2069FEF728FC58B12069FEF728FCA4
:106A60002069BDE81040FEF716BC2069FEF745FC22
:106A7000EFE710BDF8B5074600690C46FEF729FCA4
:106A800000283DD1244D254ED7F81C32D7F82022BE
:106A90000133DBB293421ED1EFF31083DB0711D435
:106AA0006B68C3F30803002BEED0103B1BB2002B26
:106AB000BDBF03F00F03043B5B199B19B4BF1B7EE2
:106AC00093F800333869FEF704FC0028DCD0384620
:106AD000FFF76EFFD8E7D7F81C32D7F82022013332
:106AE000DBB293421EBFD7F81C22D21982F81C4198
:106AF000386918BFC7F81C32FEF7FBFB0120F8BD50
:106B000007F58E70FFF71CFF0028BBD121463869BE
:106B1000FEF7E8FBF2E700BF00ED00E000E100E077
:106B200038B5D0F81821D0F814319A421BBFD0F8EC
:106B300018311B184FF0FF351D7D1FBFD0F81831DD
:106B40000133DBB2C0F8183190F82832FF2B04462D
:106B500009D01430FFF710FF0A28C2BFD4F8303232
:106B6000D4F834221A60284638BD0000F8B50B4F1F
:106B70000B4D0C4E00243B68A34200D8F8BD6A6957
:106B800056F824301A4206D0074B53F82430984761
:106B900056F824306B610134EDE700BF1811002076
:106BA00000280040D4100020901000200020FFF7A3
:106BB000DDBF0120FFF7DABF0220FFF7D7BF0320B8
:106BC000FFF7D4BF0420FFF7D1BF0520FFF7CEBFEA
:106BD0000620FFF7CBBF0720FFF7C8BF0820FFF74D
:106BE000C5BF0920FFF7C2BF0A20FFF7BFBF0B20B8
:106BF000FFF7BCBF0C20FFF7B9BF0D20FFF7B6BFF2
:106C00000E20FFF7B3BF0F20FFF7B0BFFEE7000075
:106C1000024B1B6803B11847704700BF1C110020CE
:106C200008B51549154B8B420FD1154AD2F888305B
:106C300043F47003C2F88830BFF34F8FBFF36F8FF8
:106C400000F0B2F800F08CF8FEE70E4A9A42ECD061
:106C50008B42104605D39A42E7D00B4B0B4A0021DA
:106C600006E0006843F8040B0432F1E743F8041B24
:106C70009342FBD3D9E700BF800200200000002030
:106C800000ED00E098B900008002002044110020CF
:106C900008B500F062F818B9BDE8084000F054B833
:106CA00008BDFFF7B5BFFFF7B3BFFFF7B1BF0000E7
:106CB000014B1860704700BF1C110020014B186881
:106CC000704700BF20110020124A1349F0B5134D40
:106CD00097684B682E68C3F3806390684C68D5F85A
:106CE00000C0C4F38064A3420FD166450DD1874232
:106CF0000BD3526842F22220D21B504333444FF44C
:106D00007A72534303EB1050F0BD664623460746A4
:106D1000E3E700BF10E000E000ED00E020110020FC
:106D200038B5044670B1FFF7CFFF054600F014F800
:106D3000FFF7CAFF401BB0F57A7FF7D3013C05F59A
:106D40007A75F5D138BD0000024A1368013313602B
:106D500000F08EBB20110020704700207047704764
:106D600008B500F01DF901F06BFAFFF7F8FF0120FC
:106D7000FFF7D6FF0848094CFEF778FF0648FFF7F3
:106D800007F8FDF775FCFDF7C5FBFFF7E5FF002CE5
:106D9000F9D0AFF30080F6E7D40A0020000000002D
:106DA00001F072BA01F078BA6E4A13889BB2138070
:106DB0006D4B42F20E029A82DA68D107FCD56B4B1A
:106DC0001A7842F001021A705A68D207FCD440F2D5
:106DD0000512DA625A689006FCD44FF48272634955
:106DE0001A624A6812F00402FBD1614B1A77614AB9
:106DF0009A6293F82C2012F01002FAD183F8202026
:106E00005B4B1A4693F82C104907FBD4197F41F0CD
:106E10000201197792F82C309807FBD4536A536219
:106E2000534B1A4693F82C100907FBD4982183F88A
:106E300020101369D805FCD54C4B4F4A5A635A6849
:106E40001106FCD44522C3F88420494B77225A63AB
:106E5000DA6B5207FCD44FF400629A63022283F883
:106E60003020434B1A6C9007FCD51A6CD107F9D52A
:106E70003E4A4521C2F8881063229A643C4B1A6D41
:106E80005207FCD44FF40062DA64022283F84420F3
:106E9000374B5A6D9007FCD55A6DD107F9D5334B56
:106EA00040F206325A625A681207FCD44FF442721A
:106EB0009A625A68D006FCD4304A1A632B4B1A46A1
:106EC00059684906FCD440F207311962536813F03F
:106ED0000403FBD12A4901224A7101F580518869D6
:106EE00063F38200886172B6264B9A6062B6264AC6
:106EF000D36843F08073D360244A136843F00103DE
:106F000013604FF08013224A1B6803F00301918441
:106F1000C3F30222C3F34211120142EA0122C3F376
:106F200082010A431B49A1F84820C3F38252C3F3EC
:106F3000C241120142EA0122C3F302431343164A3B
:106F4000A2F84830154B1A6802F01F01C2F344132F
:106F500043EA8113C2F3822243EA02334FF08242B2
:106F6000138570470040004100140040001C0040A1
:106F70000010004000000104060130000603040078
:106F80000008004000600041F0ED00E0001000E06B
:106F900000200042001C00430020004384008000C9
:106FA0003F4BF7B51B684FF47A72B3FBF2F3013B2A
:106FB000B3F1807F70D23B494B603B4BC02283F8DA
:106FC0002320072000228A600860802183F8231094
:106FD000364B596941F470415961996941F4FC415A
:106FE0009961D96941F07801D961196A6FEA9121F3
:106FF0006FEA8121196203F5A0534121C3F82011E2
:10700000C3F8241103F14073009303F580630193E7
:107010000424022505264FF4C0575DF82230198854
:1070200064F30A211980D98865F3C401D980196BEA
:107030000807FCD4DE72196B4906FCD49F80196BDB
:1070400011F00401FBD19972186B10F02000FBD1F4
:107050001AB300F031F8164B4422C3F82821D3F8B4
:1070600028215006FBD5134A13469168C907FCD462
:10707000117841F0010111709A68D207FCD4002206
:107080005A709A89022161F30B229A81DA8961F39D
:107090000B22DA8103B0F0BDFEE70122BDE700BF9D
:1070A0007C00002010E000E000ED00E0000800405F
:1070B000001C0040002400432E4B1A46196BC906E1
:1070C000FCD42D490B6BDB06FCD401382A4B0A2873
:1070D0004CD8DFE800F0061B212529324B363A4810
:1070E0003E00264BDA696FF31342DA61DA6942F047
:1070F0000402DA611F4A137A6FF30303137292F8E2
:1071000008346FF3030382F8083470471B4BDA69C5
:10711000012161F31342E8E7184B0221DA69F8E72D
:10712000164B0321DA69F4E7144BDA69042161F3A1
:107130001342DA61DA690A43DBE7104B0521DA69A9
:10714000E7E70E4B0621DA69E3E70C4B0721DA6922
:10715000DFE7117A042060F3030111721A7A60F3F9
:1071600003021A727047117A0220F4E7117A0320A1
:10717000F1E700BF001C004300200043001800405E
:10718000062810B5044600F08C80072800F08B809C
:10719000052800D80E340121204600F005F9A4F19D
:1071A0000E03012B32D8B4F10E0218BF0122404B5E
:1071B000995C39B3002199543E4B99688907FCD4F6
:1071C000986810F00100F8D1197860F34101197046
:1071D000384B99688807FCD4996811F00101F8D1FF
:1071E000043203EB42039A8861F341029A80314BE7
:1071F0009A689107FCD49A68D207F9D41A7842F0B9
:1072000002021A702B4A93689807FCD42A4B182262
:1072100002FB0432D06810F0020F1A4645D110F07C
:1072200080003DD0254B196B4907FCD4182101FB88
:1072300004249A88217C61F304029A801A6B9407D3
:10724000FCD41A8842F002021A801A6B9007FCD410
:107250001A7D42F002021A75012283F82E201A7D4F
:1072600042F002021A7593F82E20D107FBD5B3F82D
:10727000400080B21A6B12F00202FBD1198862F34F
:10728000410119801A6B9207FCD40D4B1A680D4B03
:107290001B689A4204D08BBFD31A9B1AD8409840DF
:1072A00010BD142477E7152475E7074BBBE700BF33
:1072B000241100200024004324B0000000200043DB
:1072C0008000002084000020001C0043182310B51B
:1072D0001F4C5843221892F90830013313D05268DA
:1072E00023560120904003290DD8DFE801F0022544
:1072F0000D19DB0103F1824303F500431A44022117
:1073000082F84010586010BDDB0103F1824303F5A1
:1073100000431A44062182F8401058609861F2E751
:10732000DB0103F1824303F500431A44062182F88E
:10733000401058605861E6E7DB0103F1824303F532
:1073400000431A44022182F840109860DBE700BF36
:1073500024B00000182330B5114D58432B1893F971
:107360000820013219D05C682B56D80100F1824305
:1073700003F5004301229D68A240154209D1234430
:107380000D1C93F8404018BF012565F3820483F873
:107390004040044B034409B95A6130BD9A61FCE78F
:1073A00024B000000080004138B51822274D424328
:1073B000AC1894F90830B3F1FF3F44D00D2905DC37
:1073C000002915DA4B1C09D0002008E01129FBDC4C
:1073D0000F2905D10021FFF779FFF5E7084638BDF1
:1073E000102901D10221F6E71129EDD10121F2E79F
:1073F000AD566468164BED0162082B4414F0010091
:10740000C9B21A4410D092F8300000F00F0040EAE0
:1074100001112344C9B282F8301093F8402042F0A1
:10742000410283F84020CFE792F8305005F0F00594
:107430002344294382F8301093F8402042F041025F
:1074400083F84020CBE71846C9E700BF24B000000E
:1074500000800041014B1860704700BF8800002089
:10746000024B4FF0FF321A60704700BF88000020C7
:107470000C4A1368591C13D0013B136083B972B6D0
:10748000094B0A4A1A60BFF34F8F0949094BCA6872
:1074900002F4E0621343CB60BFF34F8F00BFFDE700
:1074A000704700BF88000020FCFF0220EF6916F043
:1074B00000ED00E00400FA0570B544680E460025B2
:1074C0005CB1236831465B6820469847002802DBA0
:1074D0000544E468F4E74FF0FF35284670BD38B541
:1074E00044680D463CB1236829469B68204698476E
:1074F00010B9E468F6E7204638BD38B544680D4653
:107500003CB1236829461B682046984710B9E468B7
:10751000F6E7204638BD0000064A136813F0010361
:1075200006D1054940F202404B60012308801360F8
:1075300001487047281100202C11002010B5034687
:10754000044653F8041B0A7842F001020A701846F8
:107550004FF48072002100F02FFF226803469178DB
:10756000C807FCD491788907F9D4536210BD000094
:1075700030B5104B04681B68258D03F01F011F29CF
:1075800008BF052161F38A1525850168C3F34412FC
:107590000C8D1F2A08BF1D2262F304040C850268AB
:1075A000C3F38223118D072B08BF032363F30E312E
:1075B000118530BD8400800081F0004102E000BFF1
:1075C00083F0004330B54FEA41044FEA430594EAA3
:1075D000050F08BF90EA020F1FBF54EA000C55EADE
:1075E000020C7FEA645C7FEA655C00F0E2804FEAAF
:1075F0005454D4EB5555B8BF6D420CDD2C4480EA91
:10760000020281EA030382EA000083EA010180EAC0
:10761000020281EA0303362D88BF30BD11F0004F0E
:107620004FEA01314FF4801C4CEA113102D0404244
:1076300061EB410113F0004F4FEA03334CEA13337F
:1076400002D0524263EB430394EA050F00F0A78097
:10765000A4F10104D5F1200E0DDB02FA0EFC22FA92
:1076600005F2801841F1000103FA0EF2801843FA86
:1076700005F359410EE0A5F120050EF1200E012A77
:1076800003FA0EFC28BF4CF0020C43FA05F3C018B5
:1076900051EBE37101F0004507D54FF0000EDCF12E
:1076A000000C7EEB00006EEB0101B1F5801F1BD3D7
:1076B000B1F5001F0CD349085FEA30004FEA3C0CDB
:1076C00004F101044FEA445212F5800F80F09A80D1
:1076D000BCF1004F08BF5FEA500C50F1000041EBD5
:1076E000045141EA050130BD5FEA4C0C404141EBD9
:1076F000010111F4801FA4F10104E9D191F0000F00
:1077000004BF01460020B1FA81F308BF2033A3F182
:107710000B03B3F120020CDA0C3208DD02F1140C79
:10772000C2F10C0201FA0CF021FA02F10CE002F1B4
:107730001402D8BFC2F1200C01FA02F120FA0CFCAD
:10774000DCBF41EA0C019040E41AA2BF01EB0451F6
:10775000294330BD6FEA04041F3C1CDA0C340EDCF4
:1077600004F11404C4F1200220FA04F001FA02F337
:1077700040EA030021FA04F345EA030130BDC4F1F5
:107780000C04C4F1200220FA02F001FA04F340EAEA
:107790000300294630BD21FA04F0294630BD94F09B
:1077A000000F83F4801306BF81F480110134013D82
:1077B0004EE77FEA645C18BF7FEA655C29D094EAF3
:1077C000050F08BF90EA020F05D054EA000C04BF71
:1077D0001946104630BD91EA030F1EBF002100205C
:1077E00030BD5FEA545C05D14000494128BF41F0FB
:1077F000004130BD14F580043CBF01F5801130BD5F
:1078000001F0004545F0FE4141F470014FF00000E9
:1078100030BD7FEA645C1ABF194610467FEA655C9A
:107820001CBF0B46024650EA013406BF52EA03353C
:1078300091EA030F41F4002130BD00BF90F0000F2A
:1078400004BF0021704730B54FF4806404F1320466
:107850004FF000054FF0000150E700BF90F0000F1F
:1078600004BF0021704730B54FF4806404F1320446
:1078700010F0004548BF40424FF000013EE700BF16
:1078800042004FEAE2014FEA31014FEA02701FBFA6
:1078900012F07F4393F07F4F81F06051704732F0D8
:1078A0007F4208BF704793F07F4F04BF41F400212F
:1078B000704730B54FF4607401F0004521F000418D
:1078C0001CE700BF50EA010208BF704730B54FF017
:1078D00000050AE050EA010208BF704730B511F018
:1078E000004502D5404261EB41014FF4806404F150
:1078F00032045FEA915C3FF4D8AE4FF003025FEAD6
:10790000DC0C18BF03325FEADC0C18BF033202EB59
:10791000DC02C2F1200300FA03FC20FA02F001FAB3
:1079200003FE40EA0E0021FA02F11444BDE600BF56
:1079300070B54FF0FF0C4CF4E06C1CEA11541DBF05
:107940001CEA135594EA0C0F95EA0C0F00F0DEF8D0
:107950002C4481EA030621EA4C5123EA4C5350EAB5
:10796000013518BF52EA033541F4801143F4801306
:1079700038D0A0FB02CE4FF00005E1FB02E506F097
:107980000042E0FB03E54FF00006E1FB03569CF0EC
:10799000000F18BF4EF0010EA4F1FF04B6F5007FF2
:1079A00064F5407404D25FEA4E0E6D4146EB060664
:1079B00042EAC62141EA55514FEAC52040EA5E50ED
:1079C0004FEACE2EB4F1FD0C88BFBCF5E06F1ED897
:1079D000BEF1004F08BF5FEA500E50F1000041EBCE
:1079E000045170BD06F0004646EA010140EA02007B
:1079F00081EA0301B4EB5C04C2BFD4EB0C0541EA9D
:107A0000045170BD41F480114FF0000E013C00F3B1
:107A1000AB8014F1360FDEBF002001F0004170BDD5
:107A2000C4F10004203C35DA0C341BDC04F11404EE
:107A3000C4F1200500FA05F320FA04F001FA05F27A
:107A400040EA020001F0004221F0004110EBD37047
:107A500021FA04F642EB06015EEA430E08BF20EA73
:107A6000D37070BDC4F10C04C4F1200500FA04F316
:107A700020FA05F001FA04F240EA020001F00041A8
:107A800010EBD37041F100015EEA430E08BF20EA1B
:107A9000D37070BDC4F1200500FA05F24EEA020E63
:107AA00020FA04F301FA05F243EA020321FA04F092
:107AB00001F0004121FA04F220EA020000EBD37049
:107AC0005EEA430E08BF20EAD37070BD94F0000F49
:107AD0000FD101F00046400041EB010111F4801F7D
:107AE00008BF013CF7D041EA060195F0000F18BF2E
:107AF000704703F00046520043EB030313F4801F6A
:107B000008BF013DF7D043EA0603704794EA0C0F23
:107B10000CEA135518BF95EA0C0F0CD050EA410639
:107B200018BF52EA4306D1D181EA030101F00041B6
:107B30004FF0000070BD50EA410606BF10461946DE
:107B400052EA430619D094EA0C0F02D150EA0136EA
:107B500013D195EA0C0F05D152EA03361CBF10462B
:107B600019460AD181EA030101F0004141F0FE41CA
:107B700041F470014FF0000070BD41F0FE4141F44E
:107B8000780170BD70B54FF0FF0C4CF4E06C1CEA4E
:107B900011541DBF1CEA135594EA0C0F95EA0C0F03
:107BA00000F0A7F8A4EB050481EA030E52EA0335BE
:107BB0004FEA013100F088804FEA03334FF08055DF
:107BC00045EA131343EA12634FEA022245EA11150C
:107BD00045EA10654FEA00260EF000419D4208BFBD
:107BE000964244F1FD0404F5407402D25B084FEA6A
:107BF0003202B61A65EB03055B084FEA32024FF416
:107C000080104FF4002CB6EB020E75EB030E22BF72
:107C1000B61A754640EA0C005B084FEA3202B6EB32
:107C2000020E75EB030E22BFB61A754640EA5C00E1
:107C30005B084FEA3202B6EB020E75EB030E22BF71
:107C4000B61A754640EA9C005B084FEA3202B6EB72
:107C5000020E75EB030E22BFB61A754640EADC0031
:107C600055EA060E18D04FEA051545EA16754FEA93
:107C700006164FEAC30343EA52734FEAC2025FEAB1
:107C80001C1CC0D111F4801F0BD141EA00014FF040
:107C900000004FF0004CB6E711F4801F04BF014311
:107CA0000020B4F1FD0C88BFBCF5E06F3FF6AFAE2D
:107CB000B5EB030C04BFB6EB020C5FEA500C50F1BD
:107CC000000041EB045170BD0EF0004E4EEA113140
:107CD00014EB5C04C2BFD4EB0C0541EA045170BD47
:107CE00041F480114FF0000E013C90E645EA060E8B
:107CF0008DE60CEA135594EA0C0F08BF95EA0C0FB9
:107D00003FF43BAF94EA0C0F0AD150EA01347FF400
:107D100034AF95EA0C0F7FF425AF104619462CE7D7
:107D200095EA0C0F06D152EA03353FF4FDAE10463A
:107D3000194622E750EA410618BF52EA43067FF48B
:107D4000C5AE50EA41047FF40DAF52EA43057FF41B
:107D5000EBAE12E74FF0FF3C06E000BF4FF0010C26
:107D600002E000BF4FF0010C4DF804CD4FEA410C8A
:107D70007FEA6C5C4FEA430C18BF7FEA6C5C1BD057
:107D800001B050EA410C0CBF52EA430C91EA030FD8
:107D900002BF90EA020F0020704710F1000F91EA35
:107DA000030F58BF994208BF90422CBFD8176FEA03
:107DB000E37040F0010070474FEA410C7FEA6C5CD1
:107DC00002D150EA013C07D14FEA430C7FEA6C5CD8
:107DD000D6D152EA033CD3D05DF8040B704700BF04
:107DE0008446104662468C461946634600E000BF52
:107DF00001B5FFF7B7FF002848BF10F1000F01BD24
:107E00004DF808EDFFF7F4FF0CBF012000205DF8EE
:107E100008FB00BF4DF808EDFFF7EAFF34BF012073
:107E200000205DF808FB00BF4DF808EDFFF7E0FF0C
:107E300094BF012000205DF808FB00BF4DF808ED5D
:107E4000FFF7CEFF94BF012000205DF808FB00BFC4
:107E50004DF808EDFFF7C4FF34BF012000205DF8A6
:107E600008FB00BF4FEA410C7FEA6C5C02D150EA8C
:107E7000013C0AD14FEA430C7FEA6C5C02D152EA22
:107E8000033C02D14FF0000070474FF001007047F3
:107E90004FEA410212F5001215D211D56FF4787332
:107EA000B3EB625212D94FEAC12343F0004343EAD5
:107EB000505311F0004F23FA02F018BF40427047B0
:107EC0004FF00000704750EA013005D111F000403A
:107ED00008BF6FF0004070474FF00000704700BFD0
:107EE00053B94AB9002908BF00281CBF4FF0FF3121
:107EF0004FF0FF3000F072B9ADF1080C6DE904CE1F
:107F000000F006F8DDF804E0DDE9022304B0704774
:107F10002DE9F047089E04468846002B4BD18A4243
:107F2000154667D9B2FA82F24AB1C2F1200701FAC6
:107F300002F320FA07F7954047EA030894404FEA16
:107F4000154E230CB8FBFEF71FFA85FC0EFB1788B5
:107F500043EA084307FB0CF1994209D9EB1807F1F2
:107F6000FF3080F01B81994240F21881023F2B4480
:107F70005B1AA4B2B3FBFEF00EFB103344EA0344D9
:107F800000FB0CFCA44509D92C1900F1FF3380F04B
:107F90000781A44540F2048102382C4440EA07409E
:107FA000A4EB0C0400271EB1D4400023C6E9004313
:107FB0003946BDE8F0878B4209D9002E00F0EB80EE
:107FC0000027C6E9000138463946BDE8F087B3FA14
:107FD00083F7002F47D18B4202D3824200F2FA800E
:107FE000841A61EB030301209846002EE0D0C6E915
:107FF0000048DDE702B9FFDEB2FA82F2002A40F063
:108000008F80491B4FEA154E1FFA85F80127B1FBF7
:10801000FEFC230C0EFB1C1143EA014308FB0CF190
:10802000994207D9EB180CF1FF3002D2994200F2C5
:10803000CD808446591AA3B2B1FBFEF00EFB10149A
:1080400043EA044408FB00F8A04507D92C1900F1C5
:10805000FF3302D2A04500F2B6801846A4EB080414
:1080600040EA0C409FE7C7F1200CBB4022FA0CFE0F
:108070004EEA030E01FA07F420FA0CF521FA0CF38C
:108080004FEA1E482543B3FBF8F92C0C08FB1933C3
:108090001FFA8EFA44EA034309FB0AF49C4202FAEF
:1080A00007F200FA07F10BD91EEB030309F1FF30C9
:1080B00080F087809C4240F28480A9F102097344D9
:1080C0001B1BADB2B3FBF8F008FB103345EA0344C9
:1080D00000FB0AFAA24508D91EEB040400F1FF33A5
:1080E0006BD2A24569D90238744440EA0940A0FB2A
:1080F0000289A4EB0A044C45C2464B4654D351D0E6
:10810000002E69D0B1EB0A0564EB030404FA0CFC01
:10811000FD40FC404CEA0505C6E90054002747E74E
:10812000C2F1200320FA03F7954001FA02F021FA88
:1081300003F34FEA154E3843010CB3FBFEF71FFA69
:1081400085F80EFB173341EA034107FB08F38B4226
:1081500004FA02F407D9691807F1FF3C2FD28B42C9
:108160002DD9023F2944CB1A81B2B3FBFEF00EFB9E
:10817000103341EA034100FB08F38B4207D9691829
:1081800000F1FF3C17D28B4215D902382944C91A95
:1081900040EA07473BE73746304609E70746E7E648
:1081A0001846FBE64145ABD2B8EB020A69EB0E027A
:1081B00001381346A4E76046E9E7184695E76746A5
:1081C000D1E781467CE702382C4447E7ACF1020C4A
:1081D0002B442FE7384608E73746E9E6704700BFEB
:1081E0001FB51C46094B1B680546D86852B1084BA1
:1081F0000091CDE9013207492B46224600F00EF8E6
:1082000001F03EF8044B1A46F2E700BF8C00002054
:1082100090B600009DB600007EB500000EB403B518
:10822000014603AB054853F8042B0068019300F0A6
:108230009DF902B05DF804EB03B070478C0000209C
:1082400070B50D4E0D4CA41BA4100025A54209D1FC
:108250000B4E0C4C02F0F6FDA41BA4100025A54209
:1082600005D170BD56F8253098470135EEE756F830
:10827000253098470135F2E75C0200205C020020BF
:108280005C0200207C020020024B0146186800F0CE
:10829000E9B800BF8C000020024B0146186800F0CE
:1082A00093B800BF8C00002082B001B901A942B18F
:1082B0004BB113780B601278101C18BF012002B06C
:1082C00070471046FBE76FF00100F8E70000000080
:1082D00001F0FF01102A2BDB10F0070F08D010F877
:1082E000013B013A8B422DD010F0070F42B3F6D17B
:1082F000F0B441EA012141EA014122F007047FF094
:1083000000070023F0E80256083C85EA010586EAEA
:10831000010685FA47F5A3FA87F586FA47F6A5FA26
:1083200087F68EB9EED1F0BC01F0FF0102F0070232
:1083300032B110F8013B013A83EA010313B1F8D1DD
:108340000020704701387047002D06BF35460338BE
:10835000073815F0010F07D1013015F4807F02BFF7
:10836000013015F4C03F0130F0BC0138704700BF48
:1083700010B5431E0A44914200D110BD11F8014BC3
:1083800003F8014FF7E7884210B501EB020307D865
:10839000421E99420AD011F8014B02F8014FF8E74A
:1083A0008342F5D98118D21AD34200D110BD13F8F7
:1083B000014D01F8014DF7E702440346934200D115
:1083C000704703F8011BF9E738B50546002945D089
:1083D00051F8043C0C1F002BB8BFE41801F088FFD3
:1083E0001F4A1368104633B9636014602846BDE81D
:1083F000384001F07EBFA3420CD921686218934235
:1084000004BF1A685B68636004BF5218226004608E
:10841000ECE713465A680AB1A242FAD9196858180B
:10842000A0420BD120680144581882421960DDD166
:10843000106852685A6001441960D7E702D90C23CA
:108440002B60D3E7206821188A4204BF1168526864
:10845000626004BF091821605C60C7E738BD00BFD7
:108460003411002070B5CD1C25F0030508350C2D06
:1084700038BF0C25002D064601DBA94203D90C2389
:108480003360002070BD01F033FF214A146821469B
:1084900091B9204C23681BB9304600F0D7FD20600D
:1084A0002946304600F0D2FD431C24D10C23336012
:1084B000304601F01EFFE4E70B685B1B18D40B2B62
:1084C0000FD90B60CD50CC18304601F012FF04F1EB
:1084D0000B00231D20F00700C31AD3D05A42E250EC
:1084E000D0E78C424B6816BF636013600C46EBE725
:1084F0000C464968CCE7C41C24F00304A04205D014
:10850000211A304600F0A2FD0130CFD02560DBE714
:1085100034110020381100209368013B002B10B467
:10852000936008DA9469A34201DB0A2903D15DF85C
:10853000044B00F0D7BD1368581C10601970084632
:108540005DF8044B7047F8B506460F461446D5183B
:10855000AC4201D1002007E03A4614F8011B304636
:10856000FFF7DAFF431CF3D1F8BD00002DE9F04F0F
:108570009DB00C4617460393064618B183690BB9A4
:1085800001F0BAFD7B4B9C4257D17468A389180750
:108590005DD52369002B5AD00023099320238DF841
:1085A000293030238DF82A304FF0010BB84645466C
:1085B00015F8013B0BB1252B54D1B8EB070A0BD0B2
:1085C00053463A4621463046FFF7BDFF013000F0E2
:1085D000C280099B5344099398F80030002B00F0A7
:1085E000BA8000234FF0FF32CDE9052304930793AF
:1085F0008DF853301A93A846052218F8011B5E48DF
:10860000FFF766FE049B78BBD90644BF20228DF895
:1086100053201A0744BF2B228DF853202A782A2A88
:108620002AD0079AA84600200A25414611F8013BA6
:10863000303B092B69D960B324E0504B9C4201D1F7
:10864000B468A3E74E4B9C4208BFF4689EE72146FE
:10865000304600F0A7FD00289ED04FF0FF301DB03F
:10866000BDE8F08FA846A2E7434A801A0BFA00F053
:10867000184304904546BEE7039A111D1268039102
:10868000002A01DB079204E0524243F00203079202
:10869000049398F800302E2B0ED198F801302A2B35
:1086A00038D1039B1A1D1B680392002BB8BF4FF0F3
:1086B000FF3308F102080593324D98F800100322A9
:1086C0002846FFF705FE40B14023401B03FA00F0A7
:1086D000049B034308F10108049398F800102A480A
:1086E0008DF82810062208F10107FFF7F1FD002898
:1086F00037D0264B1BBB039B073323F007030833FC
:108700000393099B4B44099350E705FB0232012078
:1087100088468AE7002308F10108059319460A25CF
:10872000404610F8012B303A092A03D9002BC3D058
:108730000591C1E705FB012101238046F0E703AB6A
:1087400000932246124B04A9304600F0B7F8B0F16E
:10875000FF3F8146D5D1A3895B063FF57EAF0998DF
:108760007DE703AB00932246094B04A9304600F095
:108770005BFBECE750B80000DAB6000070B8000010
:1087800030B80000E0B60000E4B60000BD8800008C
:10879000478500002DE9FF4755EC104B0D9FDDF894
:1087A00030A0002D0E4691461946B8BF22462B46F2
:1087B00027F02007BBBF05F100431D4600232D23F2
:1087C000B8BF1446462F0B7004D0452F00D1013698
:1087D000022100E0032103AB019302AB0093324678
:1087E000534645EC104B00F0DFFD472F804602D189
:1087F00019F0010F26D0462F08EB060911D198F881
:108800000030302B0AD10022002320462946FFF7F2
:10881000F7FA18B9C6F10106CAF80060DAF80030B4
:1088200099440022002320462946FFF7E9FA38B987
:108830003022039B4B4505D2591C03911A70F8E76F
:10884000CDF80C90039B0E9AA3EB080340461360EF
:1088500004B0BDE8F087F7B500290446BABF494225
:108860002D232B23092904F8022B437020DD0DF161
:1088700007031F460A2691FBF6F506FB151130315A
:10888000092D03F8011C03F1FF32294609DC3031C0
:10889000023B02F8011CBB42224604D3101A03B06B
:1088A000F0BD1346E7E713F8012B04F8012BF2E7BC
:1088B000302319448370021DC170EFE72DE9F04F9A
:1088C0008DB00C46DDF8588016461F46054601F06F
:1088D0009DFC03680493184600F0FCFB00230A93F8
:1088E000D8F800300590073323F0070303F108029E
:1088F00094F818A0D4F800B0C8F80020D3E90023F9
:10890000C4E91223D4E9128929F000430793CDF872
:1089100018804FF0FF32A74BDDE90601FFF7A2FAFE
:1089200070BB4FF0FF32A34BDDE90601FFF77CFA85
:1089300030BB0022002340464946FFF76BFA10B1D6
:108940002D2384F843309C4A9C4BBAF1470F8CBFCF
:108950009046984603232BF00402236122604FF0D7
:108960000009009733460BAA2146284600F0E6F995
:10897000013040F08D804FF0FF300DB0BDE8F08F3A
:1089800042464B4640464946FFF76CFA10B18C4AC6
:108990008C4BDAE761684B1C4BF480620AA83ED12D
:1089A000062363600023CDE9020309AB009349EC81
:1089B000108B0DF123032260CDF804A061682846D6
:1089C000FFF7E8FE0AF0DF03472B804609D1099B39
:1089D000D81C02DB6268934247DDAAF1020A5FFA03
:1089E0008AFABAF1650F099924D80139524604F17F
:1089F00050000991FFF72FFF0A9A1318012A8146A8
:108A0000236102DC2268D10701D5013323619DF87F
:108A10002330002BA5D02D2384F84330A1E7BAF1F1
:108A2000670F00F07781BAF1470FBBD10029B9D1A8
:108A30000123B6E7BAF1660F19D1002963680CDD8E
:108A4000216113B92268D20702D501330B44236197
:108A5000099BA3654FF00009D9E713B92268D00735
:108A600001D50233F3E70123F1E74FF0670ADDE9AF
:108A70000932934205DB22682361D107E8D501332F
:108A8000E5E7002BD4BFC3F1020301231344DEE763
:108A900023685A0507D42369424631462846B84719
:108AA00001302BD167E7BAF1650F40F2DC8000227C
:108AB0000023D4E91201FFF7A3F9002833D00123E2
:108AC000414A31462846B84701303FF454AFDDE90A
:108AD00009239A4202DB2368D8070FD5DDE9042376
:108AE00031462846B84701303FF445AF4FF0000803
:108AF00004F11A090A9B013B434509DC23689B07E3
:108B000000F10381E0680B9B9842B8BF184634E738
:108B100001234A4631462846B84701303FF42BAF7F
:108B200008F10108E6E7099B002B2BDC0123264A0C
:108B300031462846B84701303FF41DAF099B23B9A1
:108B40000A9B13B92368D907D8D5DDE90423314638
:108B50002846B84701303FF40EAF4FF0000904F14A
:108B60001A0A099B5B424B4501DC0A9B94E70123EF
:108B7000524631462846B84701303FF4FCAE09F171
:108B80000109EEE70A9AA36D9A42A8BF1A46002A85
:108B9000914607DD1346314642462846B847013024
:108BA0003FF4E9AE04F11A034FF0000B29EAE9792A
:108BB000069315E0FFFFEF7FEFB60000EBB6000075
:108BC000F7B60000F3B60000FBB600000123069ADA
:108BD00031462846B84701303FF4CDAE0BF1010BCA
:108BE000D4F858A0AAEB09035B45EFDCDDE90923C3
:108BF0009A42D04415DB2368DA0712D40A9B0999FC
:108C0000A3EB0A02A3EB010A9245A8BF9246BAF170
:108C1000000F0EDC4FF000082AEAEA7A04F11A0984
:108C200019E0DDE9042331462846B8470130E5D193
:108C3000A1E65346424631462846B8470130E9D1BD
:108C400099E601234A4631462846B84701303FF4A9
:108C500092AE08F10108DDE909239B1AA3EB0A0390
:108C60004345EEDC4AE70A9A012A01DCDB073AD5E4
:108C70000123424631462846B84701303FF47BAED7
:108C8000DDE9042331462846B847013008F10108E0
:108C90003FF471AE0A9B002203F1FF3AD4E91201BE
:108CA0000023FFF7ADF8C8B953464246314628467F
:108CB000B84701300ED15EE60123524631462846C0
:108CC000B84701303FF457AE08F101080A9B013B59
:108CD0004345F1DC4B4604F15002DEE64FF000085C
:108CE00004F11A0AF2E70123DFE701234A4631467D
:108CF0002846B84701303FF43EAE08F10108E3686A
:108D00000B9A9B1A4345F0DCFCE64FF0000804F197
:108D10001909F4E700293FF48BAE0023CDE90203E3
:108D200009AB009349EC108B2260CDF804A00DF143
:108D300023032846FFF72EFD804648E62DE9F0473D
:108D400091461F468A680B69DDF820809342B8BFC0
:108D50001346C9F8003091F8432006460C4612B17C
:108D60000133C9F800302368990642BFD9F80030B2
:108D70000233C9F80030256815F0060507D104F163
:108D8000190AE368D9F800209B1AAB4228DC94F852
:108D900043302268003318BF012392062DD404F11A
:108DA000430239463046C047013020D02368E56889
:108DB000D9F8002003F00603042B08BFAD1AA368FE
:108DC00022690CBF25EAE57500259342C4BF9B1AB2
:108DD000ED184FF000091A344D451AD1002008E073
:108DE0000123524639463046C047013003D14FF087
:108DF000FF30BDE8F0870135C3E7E1185A1C302089
:108E000081F84300224494F8451082F8431002335D
:108E1000C5E70123224639463046C0470130E6D037
:108E200009F10109D8E700002DE9F04301F1430CF5
:108E30000C46097E85B06E291746064698460C9A60
:108E400000F0B38022D8632936D00AD8002900F078
:108E5000B980582900F0838004F1420584F842105B
:108E600032E0642901D06929F6D12068136805062B
:108E700003F104012AD51B681160002B03DA2D22AF
:108E80005B4284F843206F480A2239E0732900F0DE
:108E90009D8008D86F2920D07029DDD1236843F048
:108EA0002003236003E0752917D07829D4D17823D3
:108EB00084F84530644855E01368191D1B6811603B
:108EC00004F1420584F8423001238CE01B681160F4
:108ED00010F0400F18BF1BB2CFE713682568181DAC
:108EE0001060280601D51B6802E06806FBD51B88C8
:108EF00054486F2914BF0A220822002184F8431025
:108F00006568A560002DC0F29580216821F00401FC
:108F10002160002B3DD1002D40F08E806546082A4F
:108F20000BD12368DB0708D5236962689A42DEBF4C
:108F3000302305F8013C05F1FF35ACEB0503236157
:108F4000CDF800803B4603AA21463046FFF7F6FEE7
:108F500001304DD14FF0FF3005B0BDE8F083394806
:108F600084F84510136821681D1D1B6815600A06EA
:108F70000BD5CA0744BF41F0200121601BB922680C
:108F800022F0200222601022B7E74D0648BF9BB2B4
:108F9000EFE76546B3FBF2F102FB1133C35C05F862
:108FA000013D0B460029F5D1B9E7136825686169D1
:108FB000181D106028061B6801D5196002E06A06BA
:108FC000FBD51980002323616546B9E71368191D95
:108FD00011601D68626800212846FFF779F908B121
:108FE000401B606063682361002384F84330A7E777
:108FF00023692A4639463046C0470130AAD0236843
:109000009B0713D4E068039B9842B8BF1846A3E7B8
:1090100001234A4639463046C04701309AD00135CF
:10902000E368039A9B1AAB42F2DCEBE7002504F1FC
:109030001909F5E7002BACD1037884F8423004F12C
:1090400042056CE7FDB600000EB7000038B5064CCF
:10905000002305460846236001F0DCFE431C02D1D4
:10906000236803B12B6038BD401100200CB430B52B
:10907000174B0C1E9DB01D6808DA8B232B604FF038
:10908000FF301DB0BDE8304002B070474FF40273AE
:10909000ADF8143014BF04F1FF3323460493079353
:1090A0004FF6FF7302900690ADF81630209A21AB70
:1090B00002A92846019301F087FC431CBCBF8B2307
:1090C0002B60002CDDD0029B00221A70D9E700BF74
:1090D0008C000020034613F8012B002AFBD1181A3C
:1090E00001387047F8B50E461446054618B1836935
:1090F0000BB901F001F8214B9C422AD16C68A3699D
:10910000A360A3891A072ED5236963B32369206856
:10911000C01A6369F6B28342374604DC214628460A
:1091200000F080FF28BBA368013BA36023685A1CA2
:1091300022601E7063690130834204D0A389DB077B
:1091400019D50A2E17D12146284600F06BFF90B1A1
:109150000FE00B4B9C4201D1AC68D0E7094B9C421D
:1091600008BFEC68CBE72146284600F01BF8002832
:10917000CCD04FF0FF373846F8BD00BF50B80000E4
:1091800070B8000030B8000049B1FF2A85BF8A23BB
:1091900003600A704FF0FF3098BF01207047084607
:1091A00070470000324B70B51D6806460C4625B16D
:1091B000AB6913B9284600F09FFF2E4B9C420FD19C
:1091C0006C68B4F90C309AB215072CD4D00611D4BF
:1091D0000922326043F04003A3814FF0FF303EE0AC
:1091E000254B9C4201D1AC68EBE7244B9C4208BF65
:1091F000EC68E6E7510712D5616B41B104F1440315
:10920000994202D03046FFF7DFF800236363A38959
:1092100023F02403A3810023636023692360A389CF
:1092200043F00803A38123694BB9A38903F4207396
:10923000B3F5007F03D02146304601F019F8A2892A
:1092400012F001030CD00023A36063695B42A361A9
:10925000236953B9B4F90C3013F08000BAD170BD52
:10926000920758BF6369A360F2E70020F7E700BFE9
:109270008C00002050B8000070B8000030B800002A
:1092800008B5062001F0BEFC012001F0D9FD2DE952
:10929000F74F03690C69A3428046C0F28280013C0B
:1092A00001F114074FEA840C00F1140657F824501A
:1092B00056F8240006EB0C03013507EB0C0901936B
:1092C000B0FBF5F595B34FF0000A3846B646D346E5
:1092D00050F8042B93B205FB03A34FEA134A9BB249
:1092E000ABEB0303120CDEF800B005FB02A213FA8D
:1092F0008BF34FEA124A1FFA82FBDEF80020CBEB19
:10930000124202EB23429BB243EA024381454FEAF9
:10931000224B4EF8043BDBD256F80C3033B9019B9C
:10932000043B9E421A4630D3C8F81040404601F034
:10933000F7F9002825DB013530464FF0000C57F8CF
:10934000042BD0F800E093B2ACEB0303120C13FA39
:109350008EF3C2EB1E4202EB23429BB243EA02436E
:10936000B9454FEA224C40F8043BE8D256F8242095
:1093700006EB84032AB9043B9E421A460BD3C8F875
:109380001040284603B0BDE8F08F1268043B002A65
:10939000CAD1013CC5E71268043B002AEFD1013C69
:1093A000EAE70020EEE700002DE9F04F57EC106BE4
:1093B00097B0456A069104460B921293DDF88080BF
:1093C000CDE900673DB91020FEF75EFF6062C0E99D
:1093D00001550560C560636A196851B15A684A60F1
:1093E000012393408B60204600F0B8FF636A00229F
:1093F0001A603B1EBBBF23F00043019300230122F0
:10940000ACBFC8F80030C8F80020AF4BDDF80480CE
:1094100033EA080314D1129A42F20F731360009BCF
:1094200023B9C8F31300002800F04285219BDFF820
:10943000ACB2002B00F044850BF1030300F03EBDFD
:10944000DDE900670022002330463946FEF7D8FCEC
:10945000814668B1129A01231360219B002B00F012
:1094600024859A4B219A03F1FF3B136000F028BD3D
:1094700014AA15A947EC106B204601F0C8F9C8F3EF
:109480000A550490002D7CD0C7F3130343F07F5B93
:10949000B2464BF4401BA5F2FF35CDF84C900022AC
:1094A0008B4B50465946FEF78BF881A3D3E9002336
:1094B000FEF73EFA80A3D3E90023FEF783F80646C1
:1094C00028460F46FEF7CAF97DA3D3E90023FEF72D
:1094D0002FFA02460B4630463946FEF773F8064629
:1094E0000F46FEF7D5FC002282460023304639465F
:1094F000FEF790FC48B15046FEF7B0F932463B46C5
:10950000FEF77EFC08B90AF1FF3ABAF1160F59D8F6
:10951000704901EBCA01DDE90023D1E90001FEF742
:1095200097FC002850D00AF1FF3A00230F93149BB8
:109530005D1BB5F1010849BFC5F101030023059387
:109540004FF0000858BF0593BAF1000F3EDB00232F
:10955000D044CDF838A00793069B092B00F29080E9
:10956000052BC4BF043B0693069BA3F10203CCBFAB
:1095700000250125032B00F28F80DFE803F07D7FBB
:109580003171DDE914531D4405F23240202813DD0A
:10959000C0F14000009B08FA00F805F2124023FADF
:1095A00000F048EA0000FEF749F901238246A1F1E4
:1095B000F87B013D139372E7009BC0F1200003FA92
:1095C00000F0F0E70123B1E70F90B0E7059BA3EBB4
:1095D0000A030593CAF10003079300230E93BBE728
:1095E00001230A930B9B002B59DD02939946666A6F
:1095F00000227260042202F114009842716853D96B
:10960000204600F077FE636A3060B9F10E0FD3F8A0
:1096100000B000F2E680002D00F0E3809DED007BBD
:10962000BAF1000F8DED107B74DD2A4A0AF00F03AA
:1096300002EBC30393ED007B4FEA2A16F0068DED93
:10964000087B65D5244BDDE91001D3E90823FEF73B
:1096500099FACDE9000106F00F0603251E4F4CE0F4
:1096600001230A930B9B534403F1010902934B46D8
:10967000012BB8BF0123BAE70023B2E70023F0E7CC
:109680000125002306930A954FF0FF330293994674
:10969000002212230B92AAE701230A93F4E7012385
:1096A000029399461A46F5E7013171605200A2E72C
:1096B00061436F63A787D23FB3C8608B288AC63FD8
:1096C000FB799F501344D33F0000F07FFCB60000AD
:1096D0000000F83FB8B8000090B8000029B80000BA
:1096E000F10708D5DDE90801D7E90023FEF720F9E5
:1096F000CDE90801013576100837002EF0D1DDE9FB
:109700000823DDE90001FEF73DFACDE900011AE08A
:109710000225A3E700F0A080CAF100069F4BA04FEE
:1097200006F00F0203EBC203D3E90023DDE91001C9
:10973000FEF7FEF8CDE90001361100230225002EC8
:109740007FD1002BE1D10F9B002B00F08780DDE95A
:1097500000670022934B30463946FEF75BFB00283A
:109760007CD0B9F1000F79D0029B002B35DD0AF1D6
:10977000FF330893394600228B4B3046FEF7D8F86A
:10978000CDE90001029F01352846FEF767F8DDE9C3
:109790000023FEF7CDF80022844BFDF713FF0546AA
:1097A000A1F15076002F5DD10022814BDDE900014F
:1097B000FDF706FF2A463346CDE90001FEF748FBD8
:1097C000002840F088822A4606F10043DDE90001C6
:1097D000FEF720FB002840F07C82DDE91023CDE974
:1097E0000023159B002BC0F25081BAF10E0F00F33D
:1097F0004C816A4B03EBCA0393ED007B0B9B002B60
:109800008DED027B80F2D880B9F1000F00F3D48097
:1098100040F05E820022664B51EC170BFEF788F891
:10982000DDE90023FEF70AFB4F464E46002840F0D4
:10983000348231230BF101058BF800300AF1010A63
:109840002FE2F20705D5D7E90023FEF771F80135BD
:1098500001237610083772E7022574E7CDF820A0BF
:109860004F4691E74D4B03EBC70353E902010A9BB7
:10987000002B47D002460B4600204E49FEF782F9E6
:109880002A463346FDF79CFECDE90C015D46DDE935
:109890000001FEF7FDFA0646FDF7E0FF02460B4623
:1098A000DDE90001FDF78CFE303605F8016BDDE9DE
:1098B0000C23CDE90001FEF7ADFA002863D1DDE904
:1098C000002300203749FDF77BFEDDE90C23FEF77E
:1098D000A1FA002840F0B780A5EB0B039F427FF769
:1098E0007CAF0022304BDDE90C01FEF721F80022AD
:1098F000CDE90C012C4BDDE90001FEF719F8CDE9AB
:109900000001C4E72A463346FEF712F8CDE90C0100
:109910000BEB07055E46DDE90001FEF7B9FA0746E5
:10992000FDF79CFF303702460B46DDE90001FDF7ED
:1099300047FE06F8017BAE42CDE900014FF0000280
:1099400026D11C4BDDE90C01FDF73CFE02460B461F
:10995000DDE90001FEF77CFA002874D1DDE90C2373
:1099600000201449FDF72CFE02460B46DDE90001FC
:10997000FEF750FA00283FF430AF15F8013C302BC9
:1099800005F1FF3202D0DDF820A04AE01546F4E7E9
:10999000054BFDF7CDFFCDE90001BCE7B8B80000ED
:1099A00090B800000000F03F0000244000001C4080
:1099B000000014400000E03FDDE900675D46DDE99E
:1099C000022330463946FEF7DDF8FEF761FA80469D
:1099D000FDF744FFDDE90223FDF7AAFF02460B462F
:1099E0003046394608F13006FDF7EAFD05F8016B0F
:1099F000A5EB0B06B14502460B4639D1FDF7E2FD5A
:109A0000DDE9022306460F46FEF722FAC8B9DDE972
:109A1000022330463946FEF7F3F910B118F0010F72
:109A20000FD10499204600F099FC0023129A2B7064
:109A30000AF101031360219B002B00F041821D609D
:109A40003EE2CDF820A015F8012C392A05F1FF33AC
:109A500008D19B450AD1089B0133089330238BF82A
:109A600000305B461A7801321A708CE71D46EAE72F
:109A700000229B4BFDF75CFF0022002306460F46A9
:109A8000FEF7BEF900289AD0CBE70A9A002A00F028
:109A90008B80069A012A6EDC139A002A67D003F2A3
:109AA0003343079F059D059A01211A4420460592DC
:109AB000984400F0F3FC0646002D0CDDB8F1000FD1
:109AC00009DD4545059A2B46A8BF4346D21A0592A3
:109AD000ED1AA8EB0308079BEBB10A9B002B67D09C
