:1040000000000320A97A0000977A0000977A000048
:10401000977A0000977A0000977A0000000000006D
:10402000000000000000000000000000977A00007F
:10403000977A000000000000977A0000197B0000CA
:10404000977A0000977A0000977A0000977A00002C
:10405000977A0000977A0000977A0000977A00001C
:10406000977A0000977A0000977A0000977A00000C
:10407000857700008B77000091770000977700002C
:104080009D770000A3770000A9770000AF770000BC
:10409000B5770000BB770000C1770000C77700004C
:1040A000CD770000D3770000D9770000DF770000DC
:1040B000977A0000977A0000977A0000E54E00009A
:1040C000E54E0000E54E0000E54E0000E54E000024
:1040D000977A0000977A0000977A0000977A00009C
:1040E000977A0000977A0000977A0000977A00008C
:1040F00000000000977A0000915900009D590000CF
:10410000A1590000A5590000977A0000977A000095
:10411000977A0000977A0000977A0000977A00005B
:10412000977A0000977A00007959000085590000BD
:10413000895900008D590000977A0000977A000095
:10414000977A0000977A0000494C0000554C000017
:10415000594C00005D4C0000977A0000977A0000EF
:10416000977A0000977A0000977A0000977A00000B
:10417000977A0000977A000000000000000000001D
:10418000997A00002B7B00002F7B0000337B00001E
:1041900000000000977A0000977A0000977A0000EC
:1041A000977A0000977A0000977A0000977A0000CB
:1041B000977A0000977A0000977A0000977A0000BB
:1041C000977A0000977A0000977A0000977A0000AB
:1041D000977A0000977A0000977A0000977A00009B
:1041E000977A0000977A0000977A0000977A00008B
:1041F000977A000000000000977A0000977A00008C
:10420000977A0000977A0000977A0000977A00006A
:10421000977A0000977A0000977A0000977A00005A
:10422000977A0000977A0000977A0000977A00004A
:10423000977A0000977A0000977A0000977A00003A
:10424000977A0000977A0000977A0000977A00002A
:10425000977A0000977A0000977A0000977A00001A
:10426000977A000010B5054C237833B9044B13B18D
:104270000448AFF300800123237010BD900200209A
:1042800000000000A4C9000008B5034B1BB103499E
:104290000348AFF3008008BD000000009402002036
:1042A000A4C900007047704710B50446203003F0E1
:1042B00099FA04F10C0003F095FA204610BD37B5C9
:1042C0000368019304462025019B6068002BB4BF5E
:1042D0000121002103F090FF0121A06803F08CFF71
:1042E000019BA0685B000021019303F085FF013D65
:1042F000EAD1E068012103F07FFF2946E06803F07E
:104300007BFF03F01FFC206103B030BD08B50368DC
:1043100019430160FFF7D3FF08BD08B5036823EA1E
:1043200001010160FFF7CBFF08BD08B500210E2099
:1043300003F01EFF0021242003F05EFF0121242052
:1043400003F016FF0021312003F012FF00211B2093
:1043500003F00EFF00211D2003F00AFF012137208A
:1043600003F006FF0121372003F046FF00212F2034
:1043700003F042FF01212F2003F0FAFE002110205C
:1043800003F0F6FE0021282003F0F2FE0021332086
:1043900003F0EEFE0021092003F0EAFE00210820D0
:1043A00003F0E6FE0021032003F0E2FE00210220DC
:1043B00003F0DEFE00210A2003F0DAFE00210B20CC
:1043C00003F0D6FE00210D2003F0D2FE00210C20C8
:1043D00003F0CEFE0121352003F00EFF00211A204C
:1043E00003F0C6FE00211B2003F0C2FE00211C20AA
:1043F00003F0BEFE0121352003F0BAFE0021362075
:1044000003F0B6FE0021302003F0B2FE002132207E
:1044100003F0AEFE00213420BDE8084003F0A8BE42
:1044200010B5454C03F08EFB236898422BD303F064
:1044300089FBC8302060414C2368072B19D8DFE87E
:1044400003F004232E34444F64744FF080713C48D1
:10445000FFF75CFF4FF000613948FFF75EFF4FF058
:1044600080613748FFF759FF4FF000713448FFF77C
:1044700054FF236801335A4202F0070203F0070396
:1044800058BF5342236010BD4FF080712C48FFF796
:104490003DFF4FF000612A48FFF738FFDFE74FF09C
:1044A00080712748FFF739FFF3E74FF08071244808
:1044B000FFF733FF4FF000612148FFF727FF4FF070
:1044C00080611F48FFF722FFCEE74FF080711C4844
:1044D000FFF723FF4FF000611948FFF71EFFEEE7DB
:1044E0004FF080711648FFF718FF4FF00061144835
:1044F000FFF713FF4FF080611148FFF707FF4FF000
:1045000000710F48FFF702FFB3E74FF080710C48CE
:10451000FFF703FF4FF000610948FFF7FEFE4FF081
:1045200080610748FFF7F9FEE9E74FF08071044822
:10453000FFF7ECFEEEE700BFF8020020FC020020CF
:10454000D802002010B51F4C1F49204801F0BCFACA
:1045500020464FF40061FFF7D9FE4FF0805120460E
:10456000FFF7D4FE4FF47A7003F02CFB20464FF493
:104570008061FFF7CBFE4FF000512046FFF7C6FEEB
:104580004FF47A7003F01EFB20464FF48061FFF772
:10459000C4FE4FF080412046FFF7B8FE4FF47A701A
:1045A00003F010FB20464FF08051FFF7B6FE204687
:1045B0004FF00051FFF7B1FE4FF080412046FFF76A
:1045C000ACFE10BDD802002008BE00009C180020E0
:1045D00010B5302003F03AFE154B164C1A78B0FA9D
:1045E00080F040098242207009D0187012491348A7
:1045F00001F052FA0A222178104801F0B0FA342072
:1046000003F024FE0E4B0F4C1A78B0FA80F04009EC
:10461000824220700BD018700B49084801F03CFA18
:10462000217806480A22BDE8104001F098BA10BD72
:104630001D1300201C13002019BE00009C18002030
:104640001F1300201E13002023BE000008B5002207
:104650001E49322002F062FF322003F031F81C4B79
:104660001A786FF341021A705A689007FCD44FF41D
:10467000A022DA614FF400429A60DA609A611A78F7
:1046800042F002021A70124A53689907FCD4114B87
:1046900011494022C3F8A42003F5E05308221A6010
:1046A0008A6942F080028A610C4A0121C2F8D01165
:1046B00040F2212111622222DA801A6842F00202BD
:1046C0001A601A699207FCD408BD00BFA742000017
:1046D00000280040001C00400008004000E00041AD
:1046E00030B59FB003F02EFA2D4A1369C01A642822
:1046F00002D91046FFF7E3FD2A4C03F023FA2368A2
:10470000984244D903F01EFA00F57A7020600E201A
:1047100003F088FC80B2ADF80E000E2003F082FC9E
:1047200080B2ADF80E00BDF80E2042F2C4535343E0
:104730000493049B4FF47A72B3FBF2F31A4A049386
:104740008023537113695807FCD41369D906FCD42C
:10475000164B54691C60164B1B782BB120235371E8
:10476000114A13695B07FCD4049D03F0EBF923465F
:10477000CDE900500F4A642105A805F0FFFB05A90B
:104780000D4801F0A1F905A90C4801F09DF9FFF7CA
:1047900047FE0B4801F06EF8FFF71AFF1FB030BD5F
:1047A000D8020020F402002000380040EC02002073
:1047B000F002002030BE0000201B00209C180020CA
:1047C000AC020020F0B52C4C2C4F2D4989B004F1DF
:1047D0000C0605A803F04BF8002541F28833394652
:1047E0003046C4E90053257203F041F8394604F11C
:1047F000200003F03CF8234BA36105A9224BE361A1
:104800003046224E224F03F051F805A802F0EAFF8D
:1048100032462049204603F039FE2D232E22CDE9D1
:1048200001321D4C2C2300932A222B2329213846A8
:1048300000F062FE3946204600F034FC324617494B
:104840002046174C03F022FE07200523C4E901038C
:1048500001210423E36003F08BFCA068012103F035
:1048600087FC0121E06803F083FC20462560FFF708
:1048700026FD09B0F0BD00BFAC02002096C50000C7
:10488000B4BD0000601600209C180020000000202D
:1048900000030020A94200000C030020A5420000F4
:1048A000D802002008B50C490C4801F00DF90C495C
:1048B0000C4800F06CFF60B90B49084801F004F99E
:1048C0000848064900F09AFE0448BDE8084002F096
:1048D00018BD0649F1E700BFBABD00009C180020D2
:1048E000C0CA893628160020C8BD0000DEBD000001
:1048F00010B50C4C9AB0204600F018FC204600F091
:10490000E1FB094C094A0346642101A805F036FB86
:1049100001A9204601F0D8F8204602F0F2FC1AB0B6
:1049200010BD00BF0C0300209C180020EFBD00004C
:1049300038B5FFF7FAFC1C4C1C481D4D00F0A2F8DE
:104940001C4800F0EBF920464FF4E13101F04AFC3D
:104950002946204601F0B8F82046174C01F0C5FB67
:1049600020464FF4E13102F0D7FB2946204601F002
:10497000ABF82046114C02F0C4FC20464FF4E13164
:1049800002F0CAFB2946204601F09EF8204602F0BC
:10499000B8FCFFF787FFFFF7D5FDFFF7A9FFBDE8DC
:1049A0003840FFF753BE00BF201B0020201300201B
:1049B0005ABE0000541500209C18002060160020EC
:1049C000002070472DE9F84380460D46174601EB5D
:1049D00002090C464C45A4EB05060BD0D8F8003074
:1049E00014F8011B1B68404698470028F2D1304656
:1049F000BDE8F8833E46FAE77047D0F81C21D0F8AE
:104A000018319A421DBFD0F81C31C018007E4FF0FB
:104A1000FF307047D0F81831D0F81C01181A48BF81
:104A200000F58070704700002DE9F84300251F460F
:104A30004FF47A730446C0E901534FF48076104B6B
:104A400040F8183B894690462946324604F034FC2B
:104A5000C4F818513246C4F81C51294604F5907028
:104A600004F02AFCC4F82052C4F81090C4F8245270
:104A700084F814806775A5752046BDE8F88300BFEB
:104A800070BE000070B505460C4900690C4E01F07F
:104A9000FFFA286901F061F9287D182404FB0063FE
:104AA00093F9081003F0EAFB687D04FB006494F9B5
:104AB0000810BDE8704003F0E1BB00BFA086010014
:104AC0003CC00000D0F80031D0F804210133DBB243
:104AD0009A421EBFD0F800218154C0F800317047BF
:104AE00008B5837D6BB1D0F82032D0F82422013391
:104AF000DBB2934205D000F59070FFF7E3FF012091
:104B000008BD0020FCE7D0F80421D0F800319A421B
:104B10001FBFD0F80431C25CD0F8043101331DBF8F
:104B2000DBB2C0F8043110464FF0FF30704708B5D3
:104B30001830FFF7E8FF08BD70B50446006901F0C2
:104B40004CF998B1206901F055F980B1206901F064
:104B50001EF90321206901F021F9D4F83052002D0B
:104B600033D10023C4F81831C4F81C3170BD20695A
:104B700001F04AF940B1206901F041F920B1206902
:104B800001F047F90028E1D0206901F03DF910BBA0
:104B9000206901F02AF90028E8D0206901F039F9EC
:104BA000002834D0D4F82032D4F824229B1A48BFED
:104BB00003F580734BB304F59070FFF7A4FFC1B207
:104BC000206901F0FDF8A075D0E7236820461B6935
:104BD0009847A847C5E7206901F0D9F82069032163
:104BE00001F0DCF8206901F014F90028BED00023A0
:104BF000C4F82032C4F824320123A375D4F82C322F
:104C0000002BB3D0BDE870401847FF21D8E7D4F897
:104C10001831D4F81C2120690133DBB2934207D14B
:104C200001F0AEF820690321BDE8704001F0B6B88C
:104C300001F0F4F8014604F11800FFF743FF206982
:104C400001F0A5F8EEE700000148FFF775BF00BFCF
:104C500020130020FFF7F8BFFFF7F6BFFFF7F4BF00
:104C60001723162201490248FFF7DEBE141B00205D
:104C700020130020F8B5044610300D4617461E4696
:104C800000F0EEF804F1240000F0EAF80020C4E996
:104C90000E0084F8400060722DB90A4B0A4A0B4896
:104CA000222104F00DFA9DF8183063719DF81C3034
:104CB000E3719DF8203025602771A671237220468C
:104CC000F8BD00BF8CBE0000EABE00009DBE000023
:104CD000437A23B98372C372C3600123437270475E
:104CE0001FB5044604AB006803E9060000F0F8FFB6
:104CF0009DF80D30227AE17900932068002301F0BD
:104D0000A3F92068029A9DF80C1001F007F82068BA
:104D100004B0BDE8104000F0D9BF000070B50546F2
:104D2000FFF7D6FF0F4E0079182404FB006393F9B8
:104D3000081003F0A3FAA87904FB006393F90810A4
:104D400003F09CFA687904FB006494F9081003F0FE
:104D500095FA054B284693E80600BDE87040FFF73A
:104D6000BFBF00BF3CC000009815002017B4837A75
:104D70006C4684E8060043B19A070DD5EFF3108323
:104D8000B3FA83F35B09C37272B694E8060003B00A
:104D90005DF8044BFFF7A4BFDB0742BF014B8289DC
:104DA000DA60F2E700280040837A53B19A0703D50E
:104DB000C37A33B162B67047DB0742BF014B8289C9
:104DC0001A61704700280040006800F094BF00009E
:104DD0001FB50A4A0A4B1360002353711371022254
:104DE000CDE901321A2300931822192305490648F8
:104DF000FFF740FF05B05DF804FB00BF98150020E9
:104E000000093D00F01A002054150020084B1868D6
:104E100040B9EFF31082074942B972B6BFF35F8F12
:104E200001220A701A6801321A6070470870F9E7A7
:104E3000A4150020A0150020074B1A6852B11A686B
:104E4000013A1A601B682BB9044B1B7813B1BFF3EE
:104E50005F8F62B6704700BFA4150020A015002028
:104E6000FF2202700321002242708270C270027120
:104E700041718260C26002617047000010B4184B3B
:104E800003EB011191F84E10C9B211F001040CD0DE
:104E9000017803EB0113012183F84E1004234370C2
:104EA0008368D3B15DF8044B184711F0020F08D0A6
:104EB000017803EB0113022183F84E10C36844709C
:104EC000EFE7490709D5017803EB0113042183F8C3
:104ED0004E10072343700369E3E75DF8044B704706
:104EE00000A0004108B5FFF791FF074B198C074B55
:104EF00001F01F0153F8210008B1FFF7BFFFBDE823
:104F00000840FFF799BF00BF00A00041A81500208E
:104F100000F580534FF0FF321A60704770B500F50E
:104F200080540D4621684B1C06460DD0090B2846BF
:104F300000F08CF94FF4805332462168284600F087
:104F4000ADF94FF0FF332360012070BD2DE9F84F1C
:104F500006468A4615461F4600F5805B0A9B3BB312
:104F6000C5F30B09C9F580549C4228BF1C4625F4A3
:104F70007F68DBF8003028F00F0843450CD051461D
:104F80003046FFF7CBFFCBF800804FF4805332461A
:104F90004146504600F06EF93946224606EB0900BC
:104FA00004F066F90A9B1B1B27440A932544D5E7A6
:104FB0000120BDE8F88F2DE9F84F984600F58053A1
:104FC00083461C680A9F631C8946154630D094426C
:104FD00002D9D3199C422BD204F58053AB4227D976
:104FE000641B4ABFC4F1000A4FF0000A0024CAF54E
:104FF00080513E1B8E42A8BF0E462CB1234642462E
:105000002946484600F036F90BEB0A01324608EB18
:10501000040004F02DF9A1198F4206D97B1A08EB80
:1050200001022944484600F025F90120BDE8F88F27
:105030003B4642462946F5E707B54FF40073009317
:1050400013464A0201460C30FFF7B5FF03B05DF886
:1050500004FB07B55B02009313464A0201460C307D
:10506000FFF7A9FF03B05DF804FB01460C30FFF722
:1050700055BF07B54FF40073009313464A0201462B
:105080000C30FFF763FF03B05DF804FB07B55B026C
:10509000009313464A0201460C30FFF757FF03B056
:1050A0005DF804FB38B5064B044640F80C3B0D4652
:1050B000FFF72EFF00236560A360204638BD00BFC8
:1050C0009CBF00008268D37990791B0243EA0043B9
:1050D000107A1843704713B5406803680DF1070252
:1050E0001C6905210123A0479DF8070002B010BDEF
:1050F00013B5406803680DF107021C6935210123CF
:10510000A0479DF8070002B010BD10B50446204628
:10511000FFF7E1FF830702D002F070FDF7E710BD53
:10512000406803680621DB6818470000F7B50446AD
:105130004068444E03681B689847606803689F2175
:105140001D6901AA0323A8479DF804109DF80500D6
:105150009DF8065000230C2707FB036292F806C057
:105160008C455CD192F807C0844558D192F808C0AC
:10517000AC4554D1A260A06800284ED02046FFF76D
:10518000AAFFC007FAD42046FFF7B2FF0106FAD4FF
:10519000606803686621DB68984760680368992146
:1051A000DB6898471E2002F0FFFCD4E90103264982
:1051B0005A7A036851439B689847606803685B6844
:1051C000984708B3A3689A7AF2B1DB7A9A06204628
:1051D00029D5FFF780FFA3689D7A054014D12046AA
:1051E000FFF79EFFA368ADF800509A7ADB7A8DF83E
:1051F000012013F0100F606818D003685D69012367
:105200000DEB03023121A847606803680421DB68C5
:1052100098472046FFF779FF012003B0F0BD013326
:10522000072B99D1A7E7FFF763FFD4E79B06026836
:1052300048BF0123556956BF02230DEB03026A469E
:105240000121E0E740BF000040420F0070B58368D5
:1052500004460D4663B1FFF758FF2046FFF760FF95
:10526000606803682A039B692021BDE870401847E5
:10527000184670BDF8B51C46836805460E461746AD
:105280004BB1FFF742FF686803683A46DD69314673
:105290002346A84700B900242046F8BD2DE9F04771
:1052A000064680680F4690469946E0B11C46C4B158
:1052B0003046FFF72AFF3046FFF732FF7068B4F53B
:1052C000807F0368254628BF4FF48075D3F820A05F
:1052D00042462B463946D04718B1641BA8442F4498
:1052E000E5E7A9EB0400BDE8F08701207047000066
:1052F000064B9A686FF300029A60DA68D207FCD412
:105300001A6A42F001021A62704700BF0060004151
:10531000044BB3FBF1F1044B9A68C9B261F30F225D
:105320009A607047000E27070034004238B51D4BC5
:105330001D4CDA6942F40052DA611A6942F40052F3
:105340001A611A696FF355521A61236843F0010319
:1053500023600546072190F9040002F08FFF072122
:1053600095F9050002F08AFF072195F9060002F081
:1053700085FF072195F9070002F080FF072195F9C5
:10538000080002F07BFF072195F9090002F076FF83
:105390004FF4F053A36011236360236843F00203CA
:1053A000236038BD000800400034004270B520285A
:1053B0001446124D049A01D0D82800D12C636E6B8C
:1053C00060F307066E63A963A86B4BB142B1890411
:1053D00004F1806056BF01461946184603F048FFA5
:1053E000064C074B2360E3695B0502D402F006FC20
:1053F000F9E7E36943F48063E36170BD0034004280
:105400000200000107B50023084600931A46102148
:10541000FFF7CCFF012003B05DF804FB13B508468D
:105420001C461146FFF764FF00940B4600229021B2
:10543000FFF7BCFF034A9368012043F00103936028
:1054400002B010BD0060004137B5084614461D4645
:1054500042F2900142F21003002A08BF1946FFF7FA
:1054600047FF234600950022FFF7A0FF034A9368F9
:10547000012043F00103936003B030BD00600041A0
:1054800007B500230846009342F23001FFF78EFF74
:10549000012003B05DF804FB13B510461C46FFF76E
:1054A00027FF009403460A466B200549FFF77EFF5D
:1054B000044A9368012043F00103936002B010BDD9
:1054C000B21008000060004113B510461C46FFF7FB
:1054D0000FFF009403460A46322043F2B201FFF761
:1054E00065FF044A9368012043F00103936002B012
:1054F00010BD00BF0060004130B583719DF90C30D4
:10550000C3719DF91030044D03729DF9143005608C
:1055100001714271437230BDB8BF000013B502ABD8
:10552000026803F8011D546819460122A04702B021
:1055300010BD704700214FF47A7310B5C0E9011314
:105540000B4B03600B4B03610B4B836135223623FE
:10555000C0E907230223044641750175C0E90931FA
:10556000C0E90B11416300F0ADFD204610BD00BF46
:10557000ECBF000000127A005415002070B50446FC
:105580000E46C0690021154602F036FE04F11003F4
:1055900093E80600A069FFF7E9FB3146A069FFF731
:1055A00013FC2946A069FFF70FFC0546A069FFF729
:1055B000FBFBE069012102F01FFE284670BD0022BE
:1055C00001F07F01FFF7DABF10B513210446FFF7A2
:1055D000F6FFE36AC01A10BD036810B51B690446E4
:1055E000984738B1E36A0133E36200212046FFF7B0
:1055F000E6FF10BD4FF0FF30FBE700002DE9F04162
:10560000DFF844800F4F06460D46002441462846E9
:1056100000F042FA10222146284600F09EFA394650
:10562000284600F039FAE1B23046FFF7C8FF0134EE
:1056300001461022284600F0A9FA802CE6D1BDE8E8
:10564000F08100BFDCBF0000DEBF00002DE9F041AB
:105650000C46222115460746FFF7B1FF4319FF2BE1
:1056600088BFC0F1FF05064604EB0508444506D097
:1056700014F8012B80213846FFF780FFF6E77219F6
:10568000D2B2A2213846FFF779FF2846BDE8F08163
:10569000036870B51B690546984780B10D212846FF
:1056A000FFF78DFF002106462846FFF788FF3246A8
:1056B00004468D212846FFF761FF204670BD4FF05C
:1056C000FF30FBE781221146FFF758BF802281217E
:1056D000FFF754BF38B5CB17DD04044600238162C1
:1056E0000C4AC80445EA513103F06AFB862105469D
:1056F000C0F307422046FFF741FFC5F30722872189
:105700002046FFF73BFFEAB220468821BDE838403B
:10571000FFF734BF0048E80178290CD8A1F12D0229
:10572000052192FBF1F2D2B202F01F0242F02002F8
:105730008B21FFF723BFF02903D801F11E020A21B4
:10574000EFE71B22F0E7112938B5054615DD1429CE
:10575000A8BF1421CC1E8722CD21FFF70FFF8C217B
:105760002846FFF7D9FFA11E61F07F022846D2B27A
:105770008921BDE83840FFF701BF0229B8BF0221E7
:105780000C468422CD21FFF7F9FE6421E8E738B505
:1057900004460D46C069012102F0EAFCE0690121DE
:1057A00002F02AFD206A431C10D0012102F0E0FC27
:1057B0000021206A02F020FD0A2002F003FA206A8C
:1057C000012102F019FD0A2002F0FCF9A069FFF79F
:1057D000A5FA42212046FFF7F2FE122829D12046E1
:1057E000FFF774FF29462046FFF774FF00228E2141
:1057F0002046FFF7C3FE00228F212046FFF7BEFEA2
:105800000C212046FFF7DBFE40F00302D2B28C21D0
:105810002046FFF7B3FE0422A6212046FFF7AEFE86
:1058200011212046FFF78FFF2046FFF74BFF012095
:1058300038BD0020FCE700000148FFF77BBE00BF39
:1058400028160020C06908B100F03EB9704738B58D
:105850000446C0690D4648B104F10C0100F017F987
:105860002946E069BDE8384000F024B938BD8069B8
:1058700000F02AB9F0B5384F87B0044600F1200592
:10588000A06903681B699847002840D0A069036895
:105890005B6998470646C1B2284602F041F80D2ED2
:1058A000EED13946684601F0E2FF2C4903A801F029
:1058B000DEFF03AA6946284602F064F803A801F057
:1058C00091FF684601F08EFF2549684601F0CFFF41
:1058D000244903A801F0CBFF03AA6946284602F039
:1058E00051F803A801F07EFF684601F07BFF2946CE
:1058F00003A801F0EAFF03A92046FFF7A8FF03A8C9
:1059000001F070FF1849284601F0E9FFB8E7237A53
:105910008BB902F017F942F21073984209D9134972
:105920002046FFF7A4FF12492046FFF78BFF012313
:10593000237207B0F0BD02F005F923689842F8D948
:1059400002F000F900F59C5008302060094920461B
:10595000FFF78DFFEDE700BF95C5000008C0000010
:105960000DC000000FC0000096C5000014C000006C
:1059700017C0000035C00000014801F0F1BC00BFB5
:105980009C180020FFF7F8BFFFF7F6BFFFF7F4BF42
:10599000014801F0E5BC00BF60160020FFF7F8BF2A
:1059A000FFF7F6BFFFF7F4BFF7B5174E1749184FCB
:1059B000304600F0F5F81749174800F0F1F817499C
:1059C000174800F0EDF81749384600F0E9F84FF0B5
:1059D0008641154800F0E4F80124002513491448D5
:1059E00000F0DEF823462A463946CDE90045114845
:1059F00001F054FCCDE900453723382231460E48EA
:105A000001F04CFC03B0F0BDD81A0020003000407B
:105A1000FC1A002000340040E41A0020002001415C
:105A2000F01A002000400141081B00200004004340
:105A3000141B00209C180020601600202DE9F04166
:105A400006460D4601EB02080C464445A4EB05074B
:105A500007D0336814F8011B1B68304698470028AC
:105A6000F3D13846BDE8F08170B5044608460D46CE
:105A700004F0C0FA23680246294620465B68BDE868
:105A80007040184709B1FFF7EFBF08467047036839
:105A90008A685B680968184708B5FFF7F3FF08BD17
:105AA00003681B68184700000149FFF7DDBF00BF0E
:105AB00094C5000038B50546FFF7E9FF04462846BF
:105AC000FFF7F2FF204438BD38B50546FFF7DAFF8F
:105AD00004462846FFF7E8FF204438BD70B58AB079
:105AE0000D460AA9002301F8043D012A98BF0A22A5
:105AF000B5FBF2F402FB1456F3B2092E94BF303317
:105B00003733DBB2254601F8013D002CF0D1FFF719
:105B1000B9FF0AB070BD2DE9F04107460E461546A3
:105B20002AB90368C9B21B68BDE8F04118470A2AC0
:105B300005D1002905DBBDE8F041FFF7CFBFD2B2A8
:105B4000F9E72D21FFF7ACFF2A460446714238469B
:105B5000FFF7C4FF2044BDE8F081FFF7DCBF38B594
:105B60000546FFF7D8FF04462846FFF79DFF20446F
:105B700038BD10B42AB903685DF8044B1B68C9B27C
:105B80001847D2B25DF8044BFFF7A8BF38B50546F9
:105B9000FFF7EFFF04462846FFF786FF204438BD95
:105BA000012201600271704770B506683568022BEA
:105BB00045EA827214BF4FF08074002444EA020464
:105BC000346000689DF81040426801F0070141EA26
:105BD000841114BF5B0300230A431A43426070BD63
:105BE00010B5036812051C6802F440120904224330
:105BF00001F440310A431A600268536843F44033A9
:105C0000536010BD0268136843F00103136003681A
:105C10001A68D107FCD4DA69D207F9D47047026850
:105C2000136843F0020313600268D3699B07FCD436
:105C3000704703681A7E12F0010F03D11A7E12F02A
:105C4000020FFAE77047036800225A83704703681F
:105C5000187EC0F3800070470368187EC009704743
:105C60000268137E43F08003137670470368588BF5
:105C7000C0F3400070470268538B43F00203538324
:105C800070470368187E00F0010070470368986A47
:105C9000C0B2704703681A7ED207FCD59962012012
:105CA0007047036801229A757047036801221A75CC
:105CB00070470268136843F00103136003681A68B1
:105CC000D107FCD4DA69D207F9D4704702681368A7
:105CD00043F0020313600268D3699B07FCD470474A
:105CE0000268D369C3F34003002BFAD1116863F350
:105CF0004101116070470368996203681A7E520778
:105D0000FCD5986AC0B2704749008068B0FBF1F0DA
:105D100080B208B1013880B2C0B2704770B5046873
:105D2000C1F3400601F001012568090741EA467107
:105D30002943216011460368FFF7E6FF187370BD21
:105D40000268136843F00103136003681A68D107FF
:105D5000FCD4DA69D207F9D470470268136843F0BB
:105D6000020313600368DA699207FCD45A8B01219D
:105D700061F305125A830268D3695B07FCD470474C
:105D800003681A685A6842F480225A6070470368B0
:105D90001A685A686FF392425A60704703681A682B
:105DA000C2F38202052A5A6801F0030161F311422D
:105DB0005A6004D10268D3695B07FCD4704770470E
:105DC000036899620368187EC0F3800020B1588B85
:105DD000C0F3800080F00100704703681868C0F3CA
:105DE0008200031F5842584170470368187EC0F371
:105DF000800070470368187E00F001007047036858
:105E0000588BC0F3001070470368187EC0F3400041
:105E100070470368588BC0F3C000704703681A6866
:105E2000C2F38202052A02D11A7E9207FCD5986A33
:105E3000C0B270470368124A934213D002F58062E1
:105E4000934211D00F4A934210D002F50052934270
:105E50000ED0B3F1864F0DD00B4A93420CD10520E2
:105E600040B270470020FBE70120F9E70220F7E786
:105E70000320F5E70420F3E74FF0FF30704700BF41
:105E8000003000400020014100040043052A30B5E5
:105E90002BD0284C09010C44B3B12179264C203178
:105EA00054F821506FF3861544F8215054F82150CE
:105EB0006D06FBD463B302710AB3012A2ED14123CC
:105EC00044F821301D4B0AE06179E7E7032A1A4CB8
:105ED0000CD1432244F8212013B14FF400438360D6
:105EE000154B53F821205206FBD530BD042AF7D1BB
:105EF000442244F82120002BF2D0114BEFE740233D
:105F000044F821300F4BEAE7402344F82130E7E71B
:105F1000002AF9D0012A08D14123F6E7022AD5D177
:105F2000422344F82130084BD9E7022ACED142233C
:105F3000EBE700BF98C50000001C0040006CDC02CD
:105F4000001BB700000E270700E1F5052DE9F04121
:105F50000446FFF76FFF051E3BDB1F4BDFF87CE0BD
:105F6000DFF87C8029B203EB0111043100204FF0EF
:105F7000010CC02731F9023F002B4FEA531203F006
:105F80001F064FEA8202BCBF03F00F03043B02F17D
:105F9000604202F56142B4BF4344734400F1010022
:105FA0000CFA06F6C0B2C2F88061B4BF1F7683F85F
:105FB000007304281660DDD122792946012320468A
:105FC000FFF764FF227929460023BDE8F041FFF77F
:105FD0005DBFBDE8F08100BF98C5000000E100E0B2
:105FE00000ED00E02DE9F04104460F4690461D46C5
:105FF000FFF7ACFF2046FFF705FEB8004FEA483335
:1060000026689BB200F01C0018433060236884228D
:10601000012F9A7514D12268B8F1010F91890CBF34
:10602000102308235D43074BB3FBF5F363F34F31B4
:10603000918122689189C3F3CC0363F30C019181B0
:10604000BDE8F0810060E316F8B505460F4614463A
:106050001E46FFF72EFEFFF779FF24059DF8181066
:106060002A6804F4401444EA8174390444F00C04AE
:1060700001F44031214311602B6806F0070646F415
:1060800000365E602A68D3695B07FCD4F8BD000067
:1060900038B505460C46FFF759FF2846FFF750FE76
:1060A0002B6814221A602A68054BD1686400B3FB80
:1060B000F4F3013BDBB263F30701D16038BD00BFED
:1060C000006CDC02816070473F20704713B502AB63
:1060D000026803F8011D546819460122A04702B066
:1060E00010BD0221006900F003BC0321006900F02B
:1060F00013BC000010B51346074AD27904461AB9FA
:1061000001236360002010BD0A460069032100F0EE
:10611000F5FC0028F4D0F6E70800002010B5054C87
:106120002368591C04D103685B69984703462060C3
:10613000184610BD54000020064A1368591C03D1AC
:106140000221006900F0CABC4FF0FF31116018460F
:10615000704700BF540000200378034902330370E6
:106160004222024800F06CBD100000203C1B0020C1
:1061700010B502784378A12A08D1212B1BD1072220
:106180001549164800F05CFD012010BD212A12D1EE
:10619000202B12D107221049104800F0FBFB0E4BB8
:1061A0001A68B2F5966F0ED1D87910F001040AD1B1
:1061B000FA2002F0B9F80020E7E7222B06D1064BBF
:1061C0008278DA71EBE702F0B5F8F4E7232BF2D12D
:1061D000034B42881A60EEE7080000203C1B0020B9
:1061E0000400002070470000054B00224FF47A7134
:1061F000C3E9012103491960034919611A767047FF
:10620000201B002000C600003C1B0020704710B57A
:1062100001F1080400F00F02D3B2092ACCBF3733D2
:10622000303304F8013DA1424FEA1010F2D110BD05
:1062300010B50446806902F0ADFFA06A02F0AAFF23
:10624000204610BD10B50446FFF7F2FF204601F0CE
:10625000FBFC204610BD00000329F0B407D12B4BF6
:1062600053F82000F0B10368F0BCDB6818478229BE
:106270001AD12749274AC3B201EB43150324AE695B
:1062800064F31E76AE610968083302EB80105B018F
:106290006861C818027942F080020271CA5C64F336
:1062A0000612CA54F0BC70470029FBD1184DC3B286
:1062B00005EB43120327946867F31E749460164C31
:1062C000083304EB801050605B012868C45C012631
:1062D00066F30204C454D2F818C00E4C67F31E7C57
:1062E000C2F818C05461C45C66F30614C454C518DF
:1062F0009368402060F39B339360936861F30D03D0
:1063000093606B7903436B71CCE700BF401B0020A7
:10631000F41F0020681B0020281D0020EFF31082CE
:1063200002600122426072B67047036813B962B618
:10633000BFF36F8F704737B5056904466846ADB93E
:10634000FFF7ECFF019B13F1FF3303D394F82450C4
:10635000EDB2F8E768460193FFF7E7FF15B90020B3
:1063600003B030BD206AE369C01AF9E7FFF7D6FF32
:10637000019B002513F1FF3303D394F83450EDB2A1
:10638000F8E768460193FFF7D0FF002DE7D0206BB8
:10639000E36AE9E74368027A1B6803EB421393F868
:1063A000092142F0010283F80921027A4368C16899
:1063B00003EB42139A6861F39B329A60027A436856
:1063C00003EB42139A686FF30D029A604368027AF6
:1063D0001B68083203EB42131A7942F040021A712B
:1063E0007047F7B5036904460E4617466846002B0A
:1063F00044D1FFF793FF019B013B5D1C0ED094F845
:106400002420591E02F0FF0532B968460193FFF7B8
:106410008CFF284603B0F0BD0B46EEE768460193BB
:10642000FFF783FF0025AF42E36909D0226A9A4251
:1064300006D9A269591CE161D35C73550135F2E7B5
:10644000226A9A42E5D100260123E661236168466B
:10645000FFF764FF3746019B013B581CD5D084F8F9
:10646000246094F83520591E32B184F835702046E6
:106470000193FFF78FFFEEE70B46EEE7FFF74EFFC6
:10648000019B013B591C08D094F83420591E02F09E
:10649000FF05002AB9D00B46F4E768460193FFF7E1
:1064A00044FF0025BD42E36A02D0226B9A421AD80B
:1064B000226B9A42ADD10026E66226616846FFF75C
:1064C0002DFF3746019B013B5A1C9ED084F8346057
:1064D00094F83520591E6AB184F83570204601932E
:1064E000FFF758FFEEE7A26A591CE162D35C7355CF
:1064F0000135D7E70B46E7E737B54368027A1B68F3
:10650000083203EB42130446DA79D00727D5012578
:10651000DD71D4E90132D2B203EB421361699A68AA
:10652000C2F30D0209BB2262226A002A3CD0A26A91
:10653000656168465A60FFF7F1FE019B013B591CFB
:106540002ED084F8245094F83420591E02F0FF0015
:106550003AB184F8355068460193FFF7E6FE03B080
:1065600030BD84F835000B46E9E72263226BDAB1CF
:1065700000226261A2695A606846FFF7CFFE019B64
:10658000013B5A1C0CD084F8345094F82420591E36
:1065900002F0FF00002ADCD184F835000B46F0E75A
:1065A00068460193FFF7C1FE2046FFF7F3FED6E7EA
:1065B00037B502AD002305F8013D0C462846FFF72C
:1065C000CBFD23681844206001F010FF294601F03C
:1065D000DDFE2368184420609DF8070003B030BD3D
:1065E00003290BD10C4B1B6893F8642142F0800205
:1065F00083F86421022283F86721704701290AD1B8
:10660000054B1B6893F8242142F0800283F8242173
:10661000022283F827217047F41F0020404B70B5F9
:106620000121002406461C201C7001F0A1FD01215F
:106630001C2001F0E1FD3B4B3B4D1C7001211B2058
:1066400001F096FD01211B2001F0D6FD374B3848A3
:106650009A6942F001029A611A6942F480621A61F1
:10666000344B93F8582042F0010283F8582093F8F5
:106670003C2002F0F00283F83C2093F83C2042F0EA
:10668000070283F83C2093F8592042F0010283F876
:10669000592093F83C2002F00F0283F83C2093F835
:1066A0003C2042F0700283F83C20234B4122C3F887
:1066B000A82001F041FA284601F0AAFE284601F080
:1066C000C1FE2A68137864F3C71313702A6813781D
:1066D00043F0040313702A68138964F3830313815E
:1066E000164B4FF4803183F8504383F8514383F8BD
:1066F000524383F8534399604FF4003199604FF44B
:10670000802199604FF400219960137843F00203CF
:1067100013702A6893789B07FCD40123337070BDF3
:106720005D1B00205C1B0020F41F002000080040BF
:10673000F970000000800041001C004000E100E012
:10674000007880B1084B1B681A896FF300021A8128
:106750001A8B42F008021A831A8B42F004021A8341
:10676000024B00221A607047F41F0020EC1F00202B
:106770000E4B9A696FF30D029A611B68022283F82F
:10678000072193F8052142F0800283F8052193F850
:1067900007219207FBD54FF082439A7A61F30602F4
:1067A0009A729A7A42F080029A727047F41F00201F
:1067B0000B7910B50C465BB90846FFF7D9FC08B158
:1067C000012010BD094B9A6960F30D029A61F7E749
:1067D00001F00CFE214601F0FAFD0028F0D1034B38
:1067E0009A6960F30D029A61EBE700BFF41F002085
:1067F000832A2DE9F0410D4616D1CBB23049314AFA
:1068000001EB43100326846966F31E748461083328
:1068100002EB8515096845615B010420CA5C60F3E1
:106820000612CA54BDE8F081022A42D1264E56F81B
:10683000210010B103685B699847382001F002FA23
:106840001F4F224B03604FF48078002304460362FD
:10685000C0E9038380F8243043610363C36180F897
:106860003430C36280F83530C0E90175404602F02B
:1068700089FCA061404602F085FCEBB207EB4312B5
:10688000A0629168032060F31E719160083339683B
:106890005B01CA5C60F30202CA546368217AA26990
:1068A00003EB411320465A60FFF774FD46F825407C
:1068B000B8E728461146BDE8F041FFF7CDBC00BF60
:1068C000F41F0020681B0020401B002024C600008D
:1068D00070B5064E0546012456F824202AB12146FB
:1068E0002846FFF785FF0134F6E770BD5800002009
:1068F000074B53F8210010B103689B681847054BFC
:10690000C9B203EB41118868C0F30D00704700BFA6
:10691000401B0020F41F002010B50C46FFF7E8FFD5
:1069200058B1064BE4B21968083401EB44114B79B5
:1069300043F080034B710223CB7110BDF41F002084
:10694000124B30B5CAB203EB8111114B55015819E6
:1069500008244160816864F39B31816081686FF332
:106960000D0181601868224400EB42110C7944F05B
:1069700040040C718C796406FCD500EB4212D1798D
:10698000C907FCD52B449868C0B230BD281D002033
:10699000F41F002038B50C4B14461A6892F80431E5
:1069A00043F0400382F804310D460021FFF7C8FF91
:1069B0000649A04228BF20460023A34203D05A5CC8
:1069C000EA540133F9E738BDF41F0020281D0020E8
:1069D00010B50B4BC9B2490158180B448268C2F379
:1069E0000D023F2A89BF84688268403A62F30D0431
:1069F00096BF6FF30D02846082609868C0B210BDCC
:106A0000F41F00202DE9F0471D462F4B1B68074659
:106A10000E469146002B54D02C4C227802F0FF01F8
:106A200012B91B2001F0E8FB64232370284B53F8B4
:106A3000260030B103682A4649465B68BDE8F04746
:106A4000184731463846FFF753FF854204D931468F
:106A50003846FFF74DFF0546DFF87CA03146384643
:106A6000FFF7B6FFF4B2DAF800301A494FEA4418DB
:106A7000434401EB861193F8082142F0010283F8A8
:106A8000082148462A4602F0F3FBBDB1314638469C
:106A9000FFF72EFF90B9DAF8002004F1080302EBAB
:106AA0004313197941F0400119710121D97102EBA9
:106AB000080393F809210A4383F809212846BDE811
:106AC000F0874FF0FF35F9E7EC1F00205C1B00203A
:106AD000401B0020281D0020F41F002007B50123C3
:106AE0000DF10702FFF78EFF01280CBF9DF807008C
:106AF0004FF0FF3003B05DF804FB00002DE9F74FC5
:106B00009846384B1B6889469246002B42D0B8F510
:106B1000804F3FD8344C227802F0FF0112B91C207C
:106B200001F06AFB642323705FFA89F42F4B04F1B0
:106B3000080B4FEA4B1203EB891300260192B8F1C0
:106B4000000F29D02A4A019915686918897900929D
:106B5000C909284924D0284A28481268B2FBF0F015
:106B6000274A42431720B2FBF0F205EB4B10C779DE
:106B7000BF0715D411F8097017B912F1FF32F6D218
:106B8000012301F80930009B03EB4414A3696FF360
:106B90000D03A3614FF0FF36304603B0BDE8F08F20
:106BA0004746402F28BF4027002201F809201846F9
:106BB00051463A4602F05CFB009A02EB441205EBA8
:106BC0004B155061916967F30D0191610222EA71E1
:106BD0006A7942F0800203466A713E44A8EB0708D6
:106BE000BA44ACE7EC1F00205D1B0020681B0020AE
:106BF000F41F00205F1B00208000002040420F0097
:106C00007011010070B50C4C0D4604EB8514114653
:106C100020461A461E4602F02BFB0849EDB201EB56
:106C2000451130464C618B696FF39B338B618B69E7
:106C300066F30D038B6170BD681B0020F41F0020FC
:106C4000114B1B782DE9F04107468846164653B98B
:106C50000E4B1C7854B10E4D0E482C882044344401
:106C600002F006FB2C803046BDE8F0811546002D71
:106C7000F9D02B4608EB040200213846FFF7C2FF8B
:106C800004442D1AF3E700BFE81E0020E91F00208E
:106C9000EA1F0020E91E0020F8B5012A00AF0D46CA
:106CA00014462BD9D31D03F4FC73ADEB030D08463A
:106CB00003F0A0F90130400003238DF800008DF8A7
:106CC00001306E46013D02230020A3420CD215F88C
:106CD000011F49B15A1CD2B29442F15403D002337D
:106CE000B054DBB2F1E723461A4631460448FFF7B9
:106CF000A7FF003018BF0120BD46F8BD0020FBE70C
:106D00003C1B00202DE9F04385B004AE002446F87A
:106D1000104DDFF88890884601273146054689F8EE
:106D20000070FFF745FC40F20923ADF80430A023C2
:106D30008DF80B3032238DF80C30009B8DF80A4013
:106D40000933B8F1090F8DF80970ADF806308DF8E8
:106D5000080089F8004008D1424601A92846FFF7FB
:106D60006FFF012005B0BDE8F083DFF834800094A8
:106D700088F80070074F092201A928463C80FFF7D8
:106D80005FFF31462846FFF713FC88F800403A8839
:106D90000149E3E7EA1F0020E91E0020E81E002069
:106DA000E91F0020F0B5CF78022F93B006460D46BC
:106DB00008D1C9882C48FFF7A5FF003018BF012073
:106DC00013B0F0BD01F012FB294601F0F2FA041EE7
:106DD00003D0CCBF01200020F2E7012F0AD1EA88BE
:106DE000112A3CD82149D2B262B13046FFF728FFC0
:106DF0000120E5E7032F34D1AB782BB9EA88032AC9
:106E00002AD91B490A78F0E7022B05D1AA7919493A
:106E10003046FFF741FFD3E7012B02D1AA7916498B
:106E2000F6E7032B1DD1154B01A91868FFF7EFF901
:106E3000134B03A91868FFF7EAF9124B05A9186864
:106E4000FFF7E5F9104B07A91868FFF7E0F98DF88F
:106E50002440AA7901A9DBE7D2B20549C4E7034976
:106E6000D0E72046ACE700BF3C1B002060C6000016
:106E70004AC600003CC600004EC60000FC6180000F
:106E800010608000146080001860800037B54B7877
:106E90000C460B2B0FD8DFE803F0061E0E2F0E4515
:106EA00049774C4F6B6E097841B9ADF80410022355
:106EB00001AAFFF7A7FE012003B030BD0023ADF803
:106EC0000430324B1B78012B08BF8DF8043001AA27
:106ED00002230021EDE78B78012B4FF0000303D153
:106EE000ADF804302A4BEDE7284A1370294A91691E
:106EF00063F30D019161DEE78C78012C07D1244BFF
:106F000002AA00211C7002F8041D2346D1E7002CC0
:106F10003AD11E4B012018701E4B9A6964F30D0282
:106F20009A61C9E78978FFF723FCC4E7FFF73AFFC6
:106F3000C2E70123184ACCE70B7813F01F0523D1D1
:106F4000FFF7C6FC144BA2781A60124A136893F834
:106F5000291141F0020183F8291193F8491141F0F8
:106F6000010183F84911936965F30D039361A2E769
:106F700001230A4AADE7094B8A781A60054B9A69E2
:106F80006FF30D029A6196E7002095E75E1B0020E3
:106F9000661B0020F41F0020EC1F0020F01F0020C3
:106FA0002DE9F8434D4B1D780746002D40F08780B2
:106FB0004B4C23689B8B19070ED529462846FFF7B3
:106FC0004BF9236893F8092142F0100283F8092154
:106FD000444A156008229A8323689A8B52071BD56E
:106FE00004229A83404A13784BB11378013BDBB2F9
:106FF000137013781BB901211C2001F0FDF83B4AE6
:1070000013784BB11378013BDBB2137013781BB9C3
:1070100001211B2001F0F0F8236893F80721D60620
:1070200026D5102283F8072193F80421304942F035
:10703000400283F804210B7813F0600F384640D1EA
:10704000FFF724FF236800283ED093F8052142F083
:10705000800283F8052193F80721550608D54022C0
:1070600083F8072193F8082142F0400283F80821B1
:107070002368DFF880901E8C002506F0FE064FF096
:107080000108E9B2DEB146FA05F3D80714D5236842
:1070900005F1080203EB4213DA79D20702D4DB7957
:1070A0009B0705D559F82500A0B103681B689847D0
:1070B00008FA05F326EA03060135092DE1D1BDE8FA
:1070C000F883FFF775FBBDE74FF08242202182F87D
:1070D0000511C0E73846FFF783FAE9E7E91F00200A
:1070E000F41F0020EC1F00205D1B00205C1B002013
:1070F000281D0020401B00200148FFF751BF00BFA2
:107100003C1B0020024B4FF082421A60704700BFC8
:10711000F41F002001207047036840F213421B6AED
:107120001847D0F81821D0F814319A421DBFD0F872
:107130001831C018007D4FF0FF30704710B504467D
:107140000069FEF75FFD0023C4F81431C4F818315C
:10715000C4F81C32C4F8203210BD01F0F001A1F1D6
:10716000300358425841704701F47061B1F5007F17
:1071700008D0B1F5407F07D0B1F5807F0CBF052066
:1071800000207047062070470720704701F00F016C
:10719000012904D002290CBF0120022070470020E1
:1071A000704700002DE9F3410446334D90F8240266
:1071B000182606FB0053884693F90810174601F07D
:1071C0005DF894F8250206FB005393F9081001F0CE
:1071D00055F894F82732022B09D194F83802FF2889
:1071E00005D006FB005696F9081001F047F894F810
:1071F0002802FF2817D0012100F0BAFF94F82822B6
:1072000018235343E918EA561C4B4968D20113442A
:10721000C4F82C321A4B134401228A40C4F830328D
:10722000C4F834221A600122434611462069FEF751
:10723000D9FE39462046FFF797FF394605462046D6
:10724000FFF7A4FF394602462046FFF786FF29468E
:107250001346009001222069FEF7A6FC206994F8ED
:10726000262294F82712FEF7BBFC206902B0BDE885
:10727000F041FEF7D4BC00BF3CC0000018800041C4
:107280001480004108B54FF48072002102F014F818
:107290000022C0F80021C0F8042108BDF8B5164648
:1072A0001D4600224FF47A73C0E901230F4B0446B8
:1072B00040F8143B0F46FFF7E5FF04F58E70FFF72B
:1072C000E1FF9DF8183084F826329DF81C3084F8D0
:1072D0002732FF23276184F8246284F8255284F83A
:1072E000283284F838322046F8BD00BF7CC6000042
:1072F000D0F80031D0F80401181A48BF00F58070AA
:10730000704738B5044600F58E752846FFF7F0FF44
:107310000028FAD12069BDE83840FEF78ABC08B5DC
:107320001430FFF7E5FF08BDD0F80021D0F8043194
:107330009A42A5BFD0F80031D0F80421D0F804312A
:10734000C3F1FF00AFBF8018D0F80001181A00F198
:10735000FF30704708B500F58E70FFF7E5FF08BDF8
:1073600010B504460069FEF781FC28B12069FEF7DC
:107370008DFC2069FEF77FFC2069FEF768FCF8B100
:107380002069FEF783FCD4F81431D4F818210133B6
:10739000DBB293421FBFD4F8142112191075C4F840
:1073A000143194F82832FF2B0AD004F11400FFF7AF
:1073B000BBFF0928DEBFD4F82C32D4F834221A607F
:1073C0002069FEF75EFCE0B104F58E70FFF790FFD8
:1073D00018B3D4F82022D4F81C3220699A421BBF7B
:1073E000D4F820321B194FF0FF3193F81C111FBF46
:1073F000D4F820320133DBB2C4F82032C9B2FEF730
:1074000049FC2069FEF728FC58B12069FEF728FCEA
:107410002069BDE81040FEF716BC2069FEF745FC68
:10742000EFE710BDF8B5074600690C46FEF729FCEA
:1074300000283DD1244D254ED7F81C32D7F8202204
:107440000133DBB293421ED1EFF31083DB0711D47B
:107450006B68C3F30803002BEED0103B1BB2002B6C
:10746000BDBF03F00F03043B5B199B19B4BF1B7E28
:1074700093F800333869FEF704FC0028DCD0384666
:10748000FFF76EFFD8E7D7F81C32D7F82022013378
:10749000DBB293421EBFD7F81C22D21982F81C41DE
:1074A000386918BFC7F81C32FEF7FBFB0120F8BD96
:1074B00007F58E70FFF71CFF0028BBD12146386905
:1074C000FEF7E8FBF2E700BF00ED00E000E100E0BE
:1074D00038B5D0F81821D0F814319A421BBFD0F833
:1074E00018311B184FF0FF351D7D1FBFD0F8183124
:1074F0000133DBB2C0F8183190F82832FF2B044674
:1075000009D01430FFF710FF0A28C2BFD4F8303278
:10751000D4F834221A60284638BD00002DE9F8431B
:1075200016465F4A182303FB0023814693F9164051
:10753000631C0F4654D05B4B1D68984665BB4422C4
:107540002946594801F0B8FE44222946574801F01F
:10755000B3FE574B574A1D604FF0010C0C230CFA39
:1075600003F1D01801331C2BC2F88010C2F880112F
:1075700080F800531160F2D14F4B4222C3F89020A3
:1075800003F540631A7842F002021A705A689507B0
:10759000FCD40123C8F80030D7B1102C2ED1474BB2
:1075A0005A8842F001025A80042E09D8DFE806F01A
:1075B000031A1D2023005A78052161F302025A7034
:1075C0003A4B1F64012303FA04F43C4BA4B21C6140
:1075D0003A4B1A7842F002021A705A689207FCD4A9
:1075E000BDE8F8835A780421E7E75A780321E4E7F5
:1075F0005A780221E1E75A780121DEE70021484666
:1076000000F03CFE2A4A284910680125A5400023C5
:10761000944698422AD1581CCCF8000041F82350D7
:107620002649224A087842F82370072CC8BFA4F1E3
:1076300008026FF34100C7BF92000123A20000239C
:10764000087048688007FCD49B0003F1804303F571
:1076500020530720D969904021EA0001D961042E06
:10766000B0D8DFE806F009101316190051F82320EE
:10767000AA42D3D00133CCE7D869052101FA02F23E
:107680000243DA619EE7D8690421F7E7D86903214C
:10769000F4E7D8690221F1E7D8690121EEE700BFDC
:1076A0003CC00000802100203C210020F820002068
:1076B0008421002000E100E0001C00400028004080
:1076C0001B4A182303FB002070B590F91600431CD9
:1076D00015D01028174A184908BF5378174C1DBFFA
:1076E000012383409BB26FF3020314BFD360537036
:1076F00001230A6803FA00F000239A4200D170BD0A
:1077000054F8235085420FD00133F6E7013354F883
:10771000236044F8206055F8236045F8206001306C
:107720009A42F3D80A60EAE71846013A044DF7E7AF
:107730003CC0000000280040842100203C210020A3
:10774000F8200020F8B50B4F0B4D0C4E00243B6881
:10775000A34200D8F8BD6A6956F824301A4206D010
:10776000074B53F82430984756F824306B610134A6
:10777000EDE700BF84210020002800403C210020CC
:10778000F82000200020FFF7DDBF0120FFF7DABF5F
:107790000220FFF7D7BF0320FFF7D4BF0420FFF775
:1077A000D1BF0520FFF7CEBF0620FFF7CBBF0720D4
:1077B000FFF7C8BF0820FFF7C5BF0920FFF7C2BF0A
:1077C0000A20FFF7BFBF0B20FFF7BCBF0C20FFF75D
:1077D000B9BF0D20FFF7B6BF0E20FFF7B3BF0F20D4
:1077E000FFF7B0BF10B50446006801F0D3FC204697
:1077F00010BD10B50446006808B101F0CBFC0023B1
:107800002360C4E9013310BD38B504460D46006855
:10781000013102F09BFB10B1C4E90005012038BD25
:10782000036810B5044623B143688B4201D301209D
:1078300010BD2046FFF7E8FF0028F9D0A368002B11
:10784000F5D122681370F2E770B50E461146044672
:107850001546FFF7E5FF20B92046FFF7CAFF20468F
:1078600070BDA5603146206802F0BCFBF7E738B573
:1078700000230446C0E9003383600D4639B1084651
:1078800002F0B8FB294602462046FFF7DDFF2046FE
:1078900038BD38B5054608460C4602F0ABFB21461C
:1078A00002462846BDE83840FFF7CEBF884210B5F3
:1078B0000B46044604D0096821B19A68FFF7C4FF5B
:1078C000204610BDFFF795FFFAE710B500230446E8
:1078D000C0E900338360FFF7E9FF204610BD10B513
:1078E000044619B1FFF7D5FF204610BDFFF781FF11
:1078F000FAE770B505460E4609B9002070BD6AB1B9
:10790000846814442146FFF78BFF0028F5D02868CF
:10791000AB683146184402F065FBAC600120EDE72E
:1079200007B500238DF80410012201A98DF8053058
:10793000FFF7DFFF03B05DF804FB2DE9F0411546CA
:107940008A680F46CAB18368BBB19A4215D80668E7
:10795000AB4298BF03F1FF3530464FF0FF3406EBE2
:10796000050840450BD8396802F04CFB38B1831B41
:10797000AB4298BF1C460130F3E74FF0FF3420467E
:10798000BDE8F0812DE9F74FD0F808A005468846FC
:107990001646BAF1000F7BD0D1F808B0BBF1000F4A
:1079A00076D097680468A7EB0B07002F0ED120460E
:1079B000D8F8001002F026FB0446002868D0B26810
:1079C000316801F055FCB0680444F0E70CDB0B684B
:1079D000D14619462046019302F014FB48B300EB50
:1079E0000B04B944019BF4E7A146D8F800102046E7
:1079F00002F008FB8346A8B1A0EB040A21465246D8
:107A00004846D14401F034FC4846B268316801F080
:107A10002FFCB368D8F808409944AB683B445C44F9
:107A2000AB60E2E72146484603B0BDE8F04F02F004
:107A3000D9BACA452CD06B684B4523D3AA684FF0FE
:107A40000009013A002A23DB41462846FFF775FF6B
:107A5000041E1DDBD8F808302968AA68234419449D
:107A6000D21AC81901F00FFCAB682A683B44AB601E
:107A700002F803902868B2683168204401F0F8FBEE
:107A8000621EDFE749462846FFF7BEFE0028D5D133
:107A900003B0BDE8F08FFEE7024B1B6803B1184747
:107AA000704700BF8821002008B51549154B8B424F
:107AB0000FD1154AD2F8883043F47003C2F88830E9
:107AC000BFF34F8FBFF36F8F00F0C0F800F09AF84C
:107AD000FEE70E4A9A42ECD08B42104605D39A42FA
:107AE000E7D00B4B0B4A002106E0006843F8040B7B
:107AF0000432F1E743F8041B9342FBD3D9E700BFFC
:107B0000900200200000002000ED00E0B0C900005D
:107B100090020020B021002008B500F070F818B9DC
:107B2000BDE8084000F062B808BDFFF7B5BFFFF739
:107B3000B3BFFFF7B1BF0000014B1860704700BF33
:107B400088210020014B1868704700BF8C2100205D
:107B5000124A1349F0B5134D97684B682E68C3F36A
:107B6000806390684C68D5F800C0C4F38064A34279
:107B70000FD166450DD187420BD3526842F22220C5
:107B8000D21B504333444FF47A72534303EB1050EB
:107B9000F0BD664623460746E3E700BF10E000E07D
:107BA00000ED00E08C21002040B178235843044BC5
:107BB000596814385A68521A9042FBD8704700BF6F
:107BC000001000E038B5044670B1FFF7C1FF05466C
:107BD00000F014F8FFF7BCFF401BB0F57A7FF7D335
:107BE000013C05F57A75F5D138BD0000024A1368ED
:107BF0000133136000F0A6BB8C21002070470020E9
:107C00007047704708B500F01DF901F097FAFFF7CB
:107C1000F8FF0120FFF7D6FF0848094CFEF7FEFCED
:107C20000648FEF78DFDFCF783FEFCF759FDFFF7D4
:107C3000E5FF002CF9D0AFF30080F6E73C1B0020F5
:107C40000000000001F09EBA01F0A4BA6E4A138849
:107C50009BB213806D4B42F20E029A82DA68D10712
:107C6000FCD56B4B1A7842F001021A705A68D207A1
:107C7000FCD440F20512DA625A689006FCD44FF444
:107C8000827263491A624A6812F00402FBD1614BA6
:107C90001A77614A9A6293F82C2012F01002FAD1F6
:107CA00083F820205B4B1A4693F82C104907FBD42D
:107CB000197F41F00201197792F82C309807FBD414
:107CC000536A5362534B1A4693F82C100907FBD49E
:107CD000982183F820101369D805FCD54C4B4F4AE6
:107CE0005A635A681106FCD44522C3F88420494BD4
:107CF00077225A63DA6B5207FCD44FF400629A631E
:107D0000022283F83020434B1A6C9007FCD51A6C82
:107D1000D107F9D53E4A4521C2F8881063229A64FA
:107D20003C4B1A6D5207FCD44FF40062DA64022215
:107D300083F84420374B5A6D9007FCD55A6DD10714
:107D4000F9D5334B40F206325A625A681207FCD416
:107D50004FF442729A625A68D006FCD4304A1A63D1
:107D60002B4B1A4659684906FCD440F20731196278
:107D7000536813F00403FBD12A4901224A7101F52B
:107D80008051886963F38200886172B6264B9A60DD
:107D900062B6264AD36843F08073D360244A1368DE
:107DA00043F0010313604FF08013224A1B6803F075
:107DB00003019184C3F30222C3F34211120142EA88
:107DC0000122C3F382010A431B49A1F84820C3F3EF
:107DD0008252C3F3C241120142EA0122C3F30243B9
:107DE0001343164AA2F84830154B1A6802F01F01D7
:107DF000C2F3441343EA8113C2F3822243EA0233FB
:107E00004FF082421385704700400041001400404B
:107E1000001C00400010004000000104060130007A
:107E2000060304000008004000600041F0ED00E09F
:107E3000001000E000200042001C0043002000432E
:107E4000840080003F4BF7B51B684FF47A72B3FB98
:107E5000F2F3013BB3F1807F70D23B494B603B4B67
:107E6000C02283F82320072000228A600860802136
:107E700083F82310364B596941F47041596199696F
:107E800041F4FC419961D96941F07801D961196ADD
:107E90006FEA91216FEA8121196203F5A053412114
:107EA000C3F82011C3F8241103F14073009303F5C4
:107EB000806301930424022505264FF4C0575DF822
:107EC0002230198864F30A211980D98865F3C40126
:107ED000D980196B0807FCD4DE72196B4906FCD4F3
:107EE0009F80196B11F00401FBD19972186B10F08F
:107EF0002000FBD11AB300F031F8164B4422C3F82E
:107F00002821D3F828215006FBD5134A134691683F
:107F1000C907FCD4117841F0010111709A68D207A9
:107F2000FCD400225A709A89022161F30B229A81B3
:107F3000DA8961F30B22DA8103B0F0BDFEE701229A
:107F4000BDE700BF8000002010E000E000ED00E091
:107F500000080040001C0040002400432E4B1A463D
:107F6000196BC906FCD42D490B6BDB06FCD4013818
:107F70002A4B0A284CD8DFE800F0061B21252932BD
:107F80004B363A483E00264BDA696FF31342DA610A
:107F9000DA6942F00402DA611F4A137A6FF30303CD
:107FA000137292F808346FF3030382F808347047B1
:107FB0001B4BDA69012161F31342E8E7184B0221F8
:107FC000DA69F8E7164B0321DA69F4E7144BDA694A
:107FD000042161F31342DA61DA690A43DBE7104BEB
:107FE0000521DA69E7E70E4B0621DA69E3E70C4B76
:107FF0000721DA69DFE7117A042060F303011172C7
:108000001A7A60F303021A727047117A0220F4E7B9
:10801000117A0320F1E700BF001C00430020004359
:1080200000180040062810B5044600F08C80072890
:1080300000F08B80052800D80E340121204600F086
:108040001DF9A4F10E03012B32D8B4F10E0218BFB2
:108050000122404B995C39B3002199543E4B9968F9
:108060008907FCD4986810F00100F8D1197860F302
:1080700041011970384B99688807FCD4996811F050
:108080000101F8D1043203EB42039A8861F3410203
:108090009A80314B9A689107FCD49A68D207F9D438
:1080A0001A7842F002021A702B4A93689807FCD49F
:1080B0002A4B182202FB0432D06810F0020F1A4635
:1080C00045D110F080003DD0254B196B4907FCD4F9
:1080D000182101FB04249A88217C61F304029A8010
:1080E0001A6B9407FCD41A8842F002021A801A6BA9
:1080F0009007FCD41A7D42F002021A75012283F81F
:108100002E201A7D42F002021A7593F82E20D10714
:10811000FBD5B3F8400080B21A6B12F00202FBD11B
:10812000198862F3410119801A6B9207FCD40D4B38
:108130001A680D4B1B689A4204D08BBFD31A9B1A46
:10814000D840984010BD142477E7152475E7074BF5
:10815000BBE700BF90210020002400433CC000008A
:10816000002000438400002088000020001C004301
:10817000182310B51F4C5843221892F908300133C8
:1081800013D0526823560120904003290DD8DFE810
:1081900001F002250D19DB0103F1824303F50043D1
:1081A0001A44022182F84010586010BDDB0103F12F
:1081B000824303F500431A44062182F840105860B8
:1081C0009861F2E7DB0103F1824303F500431A44AF
:1081D000062182F8401058605861E6E7DB0103F1A0
:1081E000824303F500431A44022182F8401098604C
:1081F000DBE700BF3CC00000182330B5114D5843E9
:108200002B1893F90820013219D05C682B56D8013D
:1082100000F1824303F5004301229D68A24015420C
:1082200009D123440D1C93F8404018BF012565F384
:10823000820483F84040044B034409B95A6130BDBD
:108240009A61FCE73CC000000080004118230A4905
:1082500058430A1892F9083001330BD00B56DB0152
:1082600003F1824303F50043186A5368D84000F0D5
:1082700001007047002070473CC0000038B518224C
:10828000274D4243AC1894F90830B3F1FF3F44D076
:108290000D2905DC002915DA4B1C09D0002008E067
:1082A0001129FBDC0F2905D10021FFF761FFF5E75C
:1082B000084638BD102901D10221F6E71129EDD178
:1082C0000121F2E7AD566468164BED0162082B44BC
:1082D00014F00100C9B21A4410D092F8300000F036
:1082E0000F0040EA01112344C9B282F8301093F81C
:1082F000402042F0410283F84020CFE792F830500E
:1083000005F0F0052344294382F8301093F840200B
:1083100042F0410283F84020CBE71846C9E700BF8E
:108320003CC0000000800041014B1860704700BF56
:108330008C000020024B4FF0FF321A60704700BFE4
:108340008C0000200C4A1368591C13D0013B1360A9
:1083500083B972B6094B0A4A1A60BFF34F8F0949B5
:10836000094BCA6802F4E0621343CB60BFF34F8F3E
:1083700000BFFDE7704700BF8C000020FCFF02201B
:10838000EF6916F000ED00E00400FA0570B54468EE
:108390000E4600255CB1236831465B68204698474D
:1083A000002802DB0544E468F4E74FF0FF35284677
:1083B00070BD38B544680D463CB1236829469B68BA
:1083C0002046984710B9E468F6E7204638BD38B52E
:1083D00044680D463CB1236829461B6820469847EF
:1083E00010B9E468F6E7204638BD0000064A136875
:1083F00013F0010306D1054940F202404B6001230E
:1084000008801360014870479421002098210020C3
:1084100010B50346044653F8041B0A7842F00102E3
:108420000A7018464FF48072002100F045FF226860
:1084300003469178C807FCD491788907F9D4536230
:1084400010BD000030B5104B04681B68258D03F08B
:108450001F011F2908BF052161F38A1525850168C1
:10846000C3F344120C8D1F2A08BF1D2262F30404BB
:108470000C850268C3F38223118D072B08BF0323E9
:1084800063F30E31118530BD840080000B46014638
:10849000184600F033BE000081F0004102E000BF4A
:1084A00083F0004330B54FEA41044FEA430594EAB4
:1084B000050F08BF90EA020F1FBF54EA000C55EAEF
:1084C000020C7FEA645C7FEA655C00F0E2804FEAC0
:1084D0005454D4EB5555B8BF6D420CDD2C4480EAA2
:1084E000020281EA030382EA000083EA010180EAD2
:1084F000020281EA0303362D88BF30BD11F0004F20
:108500004FEA01314FF4801C4CEA113102D0404255
:1085100061EB410113F0004F4FEA03334CEA133390
:1085200002D0524263EB430394EA050F00F0A780A8
:10853000A4F10104D5F1200E0DDB02FA0EFC22FAA3
:1085400005F2801841F1000103FA0EF2801843FA97
:1085500005F359410EE0A5F120050EF1200E012A88
:1085600003FA0EFC28BF4CF0020C43FA05F3C018C6
:1085700051EBE37101F0004507D54FF0000EDCF13F
:10858000000C7EEB00006EEB0101B1F5801F1BD3E8
:10859000B1F5001F0CD349085FEA30004FEA3C0CEC
:1085A00004F101044FEA445212F5800F80F09A80E2
:1085B000BCF1004F08BF5FEA500C50F1000041EBE6
:1085C000045141EA050130BD5FEA4C0C404141EBEA
:1085D000010111F4801FA4F10104E9D191F0000F11
:1085E00004BF01460020B1FA81F308BF2033A3F194
:1085F0000B03B3F120020CDA0C3208DD02F1140C8B
:10860000C2F10C0201FA0CF021FA02F10CE002F1C5
:108610001402D8BFC2F1200C01FA02F120FA0CFCBE
:10862000DCBF41EA0C019040E41AA2BF01EB045107
:10863000294330BD6FEA04041F3C1CDA0C340EDC05
:1086400004F11404C4F1200220FA04F001FA02F348
:1086500040EA030021FA04F345EA030130BDC4F106
:108660000C04C4F1200220FA02F001FA04F340EAFB
:108670000300294630BD21FA04F0294630BD94F0AC
:10868000000F83F4801306BF81F480110134013D93
:108690004EE77FEA645C18BF7FEA655C29D094EA04
:1086A000050F08BF90EA020F05D054EA000C04BF82
:1086B0001946104630BD91EA030F1EBF002100206D
:1086C00030BD5FEA545C05D14000494128BF41F00C
:1086D000004130BD14F580043CBF01F5801130BD70
:1086E00001F0004545F0FE4141F470014FF00000FB
:1086F00030BD7FEA645C1ABF194610467FEA655CAC
:108700001CBF0B46024650EA013406BF52EA03354D
:1087100091EA030F41F4002130BD00BF90F0000F3B
:1087200004BF0021704730B54FF4806404F1320477
:108730004FF000054FF0000150E700BF90F0000F30
:1087400004BF0021704730B54FF4806404F1320457
:1087500010F0004548BF40424FF000013EE700BF27
:1087600042004FEAE2014FEA31014FEA02701FBFB7
:1087700012F07F4393F07F4F81F06051704732F0E9
:108780007F4208BF704793F07F4F04BF41F4002140
:10879000704730B54FF4607401F0004521F000419E
:1087A0001CE700BF50EA010208BF704730B54FF028
:1087B00000050AE050EA010208BF704730B511F029
:1087C000004502D5404261EB41014FF4806404F161
:1087D00032045FEA915C3FF4D8AE4FF003025FEAE7
:1087E000DC0C18BF03325FEADC0C18BF033202EB6B
:1087F000DC02C2F1200300FA03FC20FA02F001FAC5
:1088000003FE40EA0E0021FA02F11444BDE600BF67
:1088100070B54FF0FF0C4CF4E06C1CEA11541DBF16
:108820001CEA135594EA0C0F95EA0C0F00F0DEF8E1
:108830002C4481EA030621EA4C5123EA4C5350EAC6
:10884000013518BF52EA033541F4801143F4801317
:1088500038D0A0FB02CE4FF00005E1FB02E506F0A8
:108860000042E0FB03E54FF00006E1FB03569CF0FD
:10887000000F18BF4EF0010EA4F1FF04B6F5007F03
:1088800064F5407404D25FEA4E0E6D4146EB060675
:1088900042EAC62141EA55514FEAC52040EA5E50FE
:1088A0004FEACE2EB4F1FD0C88BFBCF5E06F1ED8A8
:1088B000BEF1004F08BF5FEA500E50F1000041EBDF
:1088C000045170BD06F0004646EA010140EA02008C
:1088D00081EA0301B4EB5C04C2BFD4EB0C0541EAAE
:1088E000045170BD41F480114FF0000E013C00F3C3
:1088F000AB8014F1360FDEBF002001F0004170BDE7
:10890000C4F10004203C35DA0C341BDC04F11404FF
:10891000C4F1200500FA05F320FA04F001FA05F28B
:1089200040EA020001F0004221F0004110EBD37058
:1089300021FA04F642EB06015EEA430E08BF20EA84
:10894000D37070BDC4F10C04C4F1200500FA04F327
:1089500020FA05F001FA04F240EA020001F00041B9
:1089600010EBD37041F100015EEA430E08BF20EA2C
:10897000D37070BDC4F1200500FA05F24EEA020E74
:1089800020FA04F301FA05F243EA020321FA04F0A3
:1089900001F0004121FA04F220EA020000EBD3705A
:1089A0005EEA430E08BF20EAD37070BD94F0000F5A
:1089B0000FD101F00046400041EB010111F4801F8E
:1089C00008BF013CF7D041EA060195F0000F18BF3F
:1089D000704703F00046520043EB030313F4801F7B
:1089E00008BF013DF7D043EA0603704794EA0C0F35
:1089F0000CEA135518BF95EA0C0F0CD050EA41064B
:108A000018BF52EA4306D1D181EA030101F00041C7
:108A10004FF0000070BD50EA410606BF10461946EF
:108A200052EA430619D094EA0C0F02D150EA0136FB
:108A300013D195EA0C0F05D152EA03361CBF10463C
:108A400019460AD181EA030101F0004141F0FE41DB
:108A500041F470014FF0000070BD41F0FE4141F45F
:108A6000780170BD70B54FF0FF0C4CF4E06C1CEA5F
:108A700011541DBF1CEA135594EA0C0F95EA0C0F14
:108A800000F0A7F8A4EB050481EA030E52EA0335CF
:108A90004FEA013100F088804FEA03334FF08055F0
:108AA00045EA131343EA12634FEA022245EA11151D
:108AB00045EA10654FEA00260EF000419D4208BFCE
:108AC000964244F1FD0404F5407402D25B084FEA7B
:108AD0003202B61A65EB03055B084FEA32024FF427
:108AE00080104FF4002CB6EB020E75EB030E22BF84
:108AF000B61A754640EA0C005B084FEA3202B6EB44
:108B0000020E75EB030E22BFB61A754640EA5C00F2
:108B10005B084FEA3202B6EB020E75EB030E22BF82
:108B2000B61A754640EA9C005B084FEA3202B6EB83
:108B3000020E75EB030E22BFB61A754640EADC0042
:108B400055EA060E18D04FEA051545EA16754FEAA4
:108B500006164FEAC30343EA52734FEAC2025FEAC2
:108B60001C1CC0D111F4801F0BD141EA00014FF051
:108B700000004FF0004CB6E711F4801F04BF014322
:108B80000020B4F1FD0C88BFBCF5E06F3FF6AFAE3E
:108B9000B5EB030C04BFB6EB020C5FEA500C50F1CE
:108BA000000041EB045170BD0EF0004E4EEA113151
:108BB00014EB5C04C2BFD4EB0C0541EA045170BD58
:108BC00041F480114FF0000E013C90E645EA060E9C
:108BD0008DE60CEA135594EA0C0F08BF95EA0C0FCA
:108BE0003FF43BAF94EA0C0F0AD150EA01347FF412
:108BF00034AF95EA0C0F7FF425AF104619462CE7E9
:108C000095EA0C0F06D152EA03353FF4FDAE10464B
:108C1000194622E750EA410618BF52EA43067FF49C
:108C2000C5AE50EA41047FF40DAF52EA43057FF42C
:108C3000EBAE12E74FF0FF3C06E000BF4FF0010C37
:108C400002E000BF4FF0010C4DF804CD4FEA410C9B
:108C50007FEA6C5C4FEA430C18BF7FEA6C5C1BD068
:108C600001B050EA410C0CBF52EA430C91EA030FE9
:108C700002BF90EA020F0020704710F1000F91EA46
:108C8000030F58BF994208BF90422CBFD8176FEA14
:108C9000E37040F0010070474FEA410C7FEA6C5CE2
:108CA00002D150EA013C07D14FEA430C7FEA6C5CE9
:108CB000D6D152EA033CD3D05DF8040B704700BF15
:108CC0008446104662468C461946634600E000BF63
:108CD00001B5FFF7B7FF002848BF10F1000F01BD35
:108CE0004DF808EDFFF7F4FF0CBF012000205DF800
:108CF00008FB00BF4DF808EDFFF7EAFF34BF012085
:108D000000205DF808FB00BF4DF808EDFFF7E0FF1D
:108D100094BF012000205DF808FB00BF4DF808ED6E
:108D2000FFF7CEFF94BF012000205DF808FB00BFD5
:108D30004DF808EDFFF7C4FF34BF012000205DF8B7
:108D400008FB00BF4FEA410C7FEA6C5C02D150EA9D
:108D5000013C0AD14FEA430C7FEA6C5C02D152EA33
:108D6000033C02D14FF0000070474FF00100704704
:108D70004FEA410212F5001215D211D56FF4787343
:108D8000B3EB625212D94FEAC12343F0004343EAE6
:108D9000505311F0004F23FA02F018BF40427047C1
:108DA0004FF00000704750EA013005D111F000404B
:108DB00008BF6FF0004070474FF00000704700BFE1
:108DC00053B94AB9002908BF00281CBF4FF0FF3132
:108DD0004FF0FF3000F072B9ADF1080C6DE904CE30
:108DE00000F006F8DDF804E0DDE9022304B0704786
:108DF0002DE9F047089E04468846002B4BD18A4255
:108E0000154667D9B2FA82F24AB1C2F1200701FAD7
:108E100002F320FA07F7954047EA030894404FEA27
:108E2000154E230CB8FBFEF71FFA85FC0EFB1788C6
:108E300043EA084307FB0CF1994209D9EB1807F103
:108E4000FF3080F01B81994240F21881023F2B4491
:108E50005B1AA4B2B3FBFEF00EFB103344EA0344EA
:108E600000FB0CFCA44509D92C1900F1FF3380F05C
:108E70000781A44540F2048102382C4440EA0740AF
:108E8000A4EB0C0400271EB1D4400023C6E9004324
:108E90003946BDE8F0878B4209D9002E00F0EB80FF
:108EA0000027C6E9000138463946BDE8F087B3FA25
:108EB00083F7002F47D18B4202D3824200F2FA801F
:108EC000841A61EB030301209846002EE0D0C6E926
:108ED0000048DDE702B9FFDEB2FA82F2002A40F074
:108EE0008F80491B4FEA154E1FFA85F80127B1FB09
:108EF000FEFC230C0EFB1C1143EA014308FB0CF1A2
:108F0000994207D9EB180CF1FF3002D2994200F2D6
:108F1000CD808446591AA3B2B1FBFEF00EFB1014AB
:108F200043EA044408FB00F8A04507D92C1900F1D6
:108F3000FF3302D2A04500F2B6801846A4EB080425
:108F400040EA0C409FE7C7F1200CBB4022FA0CFE20
:108F50004EEA030E01FA07F420FA0CF521FA0CF39D
:108F60004FEA1E482543B3FBF8F92C0C08FB1933D4
:108F70001FFA8EFA44EA034309FB0AF49C4202FA00
:108F800007F200FA07F10BD91EEB030309F1FF30DA
:108F900080F087809C4240F28480A9F102097344EA
:108FA0001B1BADB2B3FBF8F008FB103345EA0344DA
:108FB00000FB0AFAA24508D91EEB040400F1FF33B6
:108FC0006BD2A24569D90238744440EA0940A0FB3B
:108FD0000289A4EB0A044C45C2464B4654D351D0F7
:108FE000002E69D0B1EB0A0564EB030404FA0CFC13
:108FF000FD40FC404CEA0505C6E90054002747E760
:10900000C2F1200320FA03F7954001FA02F021FA99
:1090100003F34FEA154E3843010CB3FBFEF71FFA7A
:1090200085F80EFB173341EA034107FB08F38B4237
:1090300004FA02F407D9691807F1FF3C2FD28B42DA
:109040002DD9023F2944CB1A81B2B3FBFEF00EFBAF
:10905000103341EA034100FB08F38B4207D969183A
:1090600000F1FF3C17D28B4215D902382944C91AA6
:1090700040EA07473BE73746304609E70746E7E659
:109080001846FBE64145ABD2B8EB020A69EB0E028B
:1090900001381346A4E76046E9E7184695E76746B6
:1090A000D1E781467CE702382C4447E7ACF1020C5B
:1090B0002B442FE7384608E73746E9E6704700BFFC
:1090C0001FB51C46094B1B680546D86852B1084BB2
:1090D0000091CDE9013207492B46224600F01CF8E9
:1090E00001F078F8044B1A46F2E700BF9000002028
:1090F000A8C60000B5C6000096C5000010B5054C16
:1091000013462CB10A4601460220AFF3008010BD81
:109110002046FCE7000000000EB403B5014603AB97
:10912000054853F8042B0068019300F09FF902B042
:109130005DF804EB03B070479000002070B50D4E51
:109140000D4CA41BA4100025A54209D10B4E0C4CBC
:1091500002F024FEA41BA4100025A54205D170BD79
:1091600056F8253098470135EEE756F825309847F0
:109170000135F2E76002002060020020600200205A
:1091800080020020024B0146186800F0EBB800BFD7
:1091900090000020024B0146186800F095B800BF0F
:1091A0009000002082B001B901A942B14BB11378FF
:1091B0000B601278101C18BF012002B070471046D7
:1091C000FBE76FF00100F8E700000000000000007E
:1091D00001F0FF01102A2BDB10F0070F08D010F868
:1091E000013B013A8B422DD010F0070F42B3F6D16C
:1091F000F0B441EA012141EA014122F007047FF085
:1092000000070023F0E80256083C85EA010586EADB
:10921000010685FA47F5A3FA87F586FA47F6A5FA17
:1092200087F68EB9EED1F0BC01F0FF0102F0070223
:1092300032B110F8013B013A83EA010313B1F8D1CE
:109240000020704701387047002D06BF35460338AF
:10925000073815F0010F07D1013015F4807F02BFE8
:10926000013015F4C03F0130F0BC0138704700BF39
:1092700010B5431E0A44914200D110BD11F8014BB4
:1092800003F8014FF7E7884210B501EB020307D856
:10929000421E99420AD011F8014B02F8014FF8E73B
:1092A0008342F5D98118D21AD34200D110BD13F8E8
:1092B000014D01F8014DF7E702440346934200D106
:1092C000704703F8011BF9E738B50546002945D07A
:1092D00051F8043C0C1F002BB8BFE41801F0B4FF98
:1092E0001F4A1368104633B9636014602846BDE80E
:1092F000384001F0AABFA3420CD9216862189342FA
:1093000004BF1A685B68636004BF5218226004607F
:10931000ECE713465A680AB1A242FAD919685818FC
:10932000A0420BD120680144581882421960DDD157
:10933000106852685A6001441960D7E702D90C23BB
:109340002B60D3E7206821188A4204BF1168526855
:10935000626004BF091821605C60C7E738BD00BFC8
:10936000A021002070B5CD1C25F0030508350C2D7B
:1093700038BF0C25002D064601DBA94203D90C237A
:109380003360002070BD01F05FFF214A1468214660
:1093900091B9204C23681BB9304600F0DFFD2060F6
:1093A0002946304600F0DAFD431C24D10C233360FB
:1093B000304601F04AFFE4E70B685B1B18D40B2B27
:1093C0000FD90B60CD50CC18304601F03EFF04F1B0
:1093D0000B00231D20F00700C31AD3D05A42E250DD
:1093E000D0E78C424B6816BF636013600C46EBE716
:1093F0000C464968CCE7C41C24F00304A04205D005
:10940000211A304600F0AAFD0130CFD02560DBE7FD
:10941000A0210020A42100209368013B002B10B460
:10942000936008DA9469A34201DB0A2903D15DF84D
:10943000044B00F001BE1368581C106019700846F8
:109440005DF8044B7047F8B506460F461446D5182C
:10945000AC4201D1002007E03A4614F8011B304627
:10946000FFF7DAFF431CF3D1F8BD00002DE9F04F00
:109470009DB00C4617460393064618B183690BB995
:1094800001F0E6FD7B4B9C4257D17468A389180715
:109490005DD52369002B5AD00023099320238DF832
:1094A000293030238DF82A304FF0010BB84645465D
:1094B00015F8013B0BB1252B54D1B8EB070A0BD0A3
:1094C00053463A4621463046FFF7BDFF013000F0D3
:1094D000C280099B5344099398F80030002B00F098
:1094E000BA8000234FF0FF32CDE9052304930793A0
:1094F0008DF853301A93A846052218F8011B5E48D0
:10950000FFF766FE049B78BBD90644BF20228DF886
:1095100053201A0744BF2B228DF853202A782A2A79
:109520002AD0079AA84600200A25414611F8013B97
:10953000303B092B69D960B324E0504B9C4201D1E8
:10954000B468A3E74E4B9C4208BFF4689EE72146EF
:10955000304600F0D1FD00289ED04FF0FF301DB006
:10956000BDE8F08FA846A2E7434A801A0BFA00F044
:10957000184304904546BEE7039A111D12680391F3
:10958000002A01DB079204E0524243F002030792F3
:10959000049398F800302E2B0ED198F801302A2B26
:1095A00038D1039B1A1D1B680392002BB8BF4FF0E4
:1095B000FF3308F102080593324D98F8001003229A
:1095C0002846FFF705FE40B14023401B03FA00F098
:1095D000049B034308F10108049398F800102A48FB
:1095E0008DF82810062208F10107FFF7F1FD002889
:1095F00037D0264B1BBB039B073323F007030833ED
:109600000393099B4B44099350E705FB0232012069
:1096100088468AE7002308F10108059319460A25C0
:10962000404610F8012B303A092A03D9002BC3D049
:109630000591C1E705FB012101238046F0E703AB5B
:1096400000932246124B04A9304600F0B7F8B0F15F
:10965000FF3F8146D5D1A3895B063FF57EAF0998D0
:109660007DE703AB00932246094B04A9304600F086
:109670005BFBECE768C80000F2C6000088C8000089
:1096800048C80000F8C60000FCC60000BD970000F6
:10969000479400002DE9FF4755EC104B0D9FDDF876
:1096A00030A0002D0E4691461946B8BF22462B46E3
:1096B00027F02007BBBF05F100431D4600232D23E3
:1096C000B8BF1446462F0B7004D0452F00D1013689
:1096D000022100E0032103AB019302AB0093324669
:1096E000534645EC104B00F00BFE472F804602D14D
:1096F00019F0010F26D0462F08EB060911D198F872
:109700000030302B0AD10022002320462946FFF7E3
:10971000E7FA18B9C6F10106CAF80060DAF80030B5
:1097200099440022002320462946FFF7D9FA38B988
:109730003022039B4B4505D2591C03911A70F8E760
:10974000CDF80C90039B0E9AA3EB080340461360E0
:1097500004B0BDE8F087F7B500290446BABF494216
:109760002D232B23092904F8022B437020DD0DF152
:1097700007031F460A2691FBF6F506FB151130314B
:10978000092D03F8011C03F1FF32294609DC3031B1
:10979000023B02F8011CBB42224604D3101A03B05C
:1097A000F0BD1346E7E713F8012B04F8012BF2E7AD
:1097B000302319448370021DC170EFE72DE9F04F8B
:1097C0008DB00C46DDF8588016461F46054601F060
:1097D000C9FC03680493184600F00CFC00230A93AC
:1097E000D8F800300590073323F0070303F108028F
:1097F00094F818A0D4F800B0C8F80020D3E90023EA
:10980000C4E91223D4E9128929F000430793CDF863
:1098100018804FF0FF32A74BDDE90601FFF792FAFF
:1098200070BB4FF0FF32A34BDDE90601FFF76CFA86
:1098300030BB0022002340464946FFF75BFA10B1D7
:109840002D2384F843309C4A9C4BBAF1470F8CBFC0
:109850009046984603232BF00402236122604FF0C8
:109860000009009733460BAA2146284600F0E6F986
:10987000013040F08D804FF0FF300DB0BDE8F08F2B
:1098800042464B4640464946FFF75CFA10B18C4AC7
:109890008C4BDAE761684B1C4BF480620AA83ED11E
:1098A000062363600023CDE9020309AB009349EC72
:1098B000108B0DF123032260CDF804A061682846C7
:1098C000FFF7E8FE0AF0DF03472B804609D1099B2A
:1098D000D81C02DB6268934247DDAAF1020A5FFAF4
:1098E0008AFABAF1650F099924D80139524604F170
:1098F00050000991FFF72FFF0A9A1318012A814699
:10990000236102DC2268D10701D5013323619DF870
:109910002330002BA5D02D2384F84330A1E7BAF1E2
:10992000670F00F07781BAF1470FBBD10029B9D199
:109930000123B6E7BAF1660F19D1002963680CDD7F
:10994000216113B92268D20702D501330B44236188
:10995000099BA3654FF00009D9E713B92268D00726
:1099600001D50233F3E70123F1E74FF0670ADDE9A0
:109970000932934205DB22682361D107E8D5013320
:10998000E5E7002BD4BFC3F1020301231344DEE754
:1099900023685A0507D42369424631462846B8470A
:1099A00001302BD167E7BAF1650F40F2DC8000226D
:1099B0000023D4E91201FFF793F9002833D00123E3
:1099C000414A31462846B84701303FF454AFDDE9FB
:1099D00009239A4202DB2368D8070FD5DDE9042367
:1099E00031462846B84701303FF445AF4FF00008F4
:1099F00004F11A090A9B013B434509DC23689B07D4
:109A000000F10381E0680B9B9842B8BF184634E729
:109A100001234A4631462846B84701303FF42BAF70
:109A200008F10108E6E7099B002B2BDC0123264AFD
:109A300031462846B84701303FF41DAF099B23B992
:109A40000A9B13B92368D907D8D5DDE90423314629
:109A50002846B84701303FF40EAF4FF0000904F13B
:109A60001A0A099B5B424B4501DC0A9B94E70123E0
:109A7000524631462846B84701303FF4FCAE09F162
:109A80000109EEE70A9AA36D9A42A8BF1A46002A76
:109A9000914607DD1346314642462846B847013015
:109AA0003FF4E9AE04F11A034FF0000B29EAE9791B
:109AB000069315E0FFFFEF7F07C7000003C7000014
:109AC0000FC700000BC7000013C700000123069A50
:109AD00031462846B84701303FF4CDAE0BF1010BBB
